{
  "_format": "hh-sol-artifact-1",
  "contractName": "Groth16Verifier",
  "sourceName": "src/contracts/ETACircuitVerifier.sol",
  "abi": [
    {
      "inputs": [
        {
          "internalType": "uint256[2]",
          "name": "_pA",
          "type": "uint256[2]"
        },
        {
          "internalType": "uint256[2][2]",
          "name": "_pB",
          "type": "uint256[2][2]"
        },
        {
          "internalType": "uint256[2]",
          "name": "_pC",
          "type": "uint256[2]"
        },
        {
          "internalType": "uint256[6]",
          "name": "_pubSignals",
          "type": "uint256[6]"
        }
      ],
      "name": "verifyProof",
      "outputs": [
        {
          "internalType": "bool",
          "name": "",
          "type": "bool"
        }
      ],
      "stateMutability": "view",
      "type": "function"
    }
  ],
  "bytecode": "0x608060405234801561001057600080fd5b506107d1806100206000396000f3fe608060405234801561001057600080fd5b506004361061002b5760003560e01c8063f398789b14610030575b600080fd5b61004a600480360381019061004591906106fc565b610060565b6040516100579190610780565b60405180910390f35b600061061c565b7f30644e72e131a029b85045b68181585d2833e84879b9709143e1f593f00000018110610098576000805260206000f35b50565b600060405183815284602082015285604082015260408160608360076107d05a03fa9150816100ce576000805260206000f35b825160408201526020830151606082015260408360808360066107d05a03fa9150816100fe576000805260206000f35b505050505050565b600060808601600087017f10fe0c77dfff2faa11d018df05d6268bf09fc774d43a4db6a6e3fff0e424270481527f2c0c8057fc3d17ce817c4d136550bbaba7f57a35974fb09f33fd1865dfba608560208201526101a960008801357f0ab33d694a878ebf5330b67808e9021784b90d2de69bba69e5beaa9403ce6c017f0f6993508ae90926766b9d689f4fe8d1c14ee3c5f339081a2f8254c8f410f6a78461009b565b6101f960208801357f14eb531c2c4ff9e558f1d506fa965d650a6e617cead8369c2be39b1a3cbfab9b7f0abadbe27805f27dbf2e06322fc4eb3a7789a0b7203023f1c592bab9e50011268461009b565b61024960408801357f1b1c77708e7a877a07524c5250be634f649ed1e717e20b0c1142e064fa3e9c327f1bc269dd578877e42953685b832efcbadc20925c51e0af1f55623f040e010a6c8461009b565b61029960608801357f1dde832daa9c9902108f50951ed361f0261674337d66550017376a0d4872346a7f1f64e666f95a90cf926fa921bc31e5c9b50790a93d8855ae97052d21f1724d5d8461009b565b6102e860808801357e1a9a44982846ac22dfcd86761c710a317436b33bbceda499d38b4b41beb2557f06ae76ef3c526e9209f71cf41ba5d3dd14b67fd00672b0861d9600eb93691db28461009b565b61033860a08801357f2918ace75986977eb28f237bc55498cf7c1664bccd93d355d170dbbc6a82ac267f210234908e960ffc11578858e2f6c80d93fe41e9875b3884465858868d24c44e8461009b565b833582527f30644e72e131a029b85045b68181585d97816a916871ca8d3c208c16d87cfd4760208501357f30644e72e131a029b85045b68181585d97816a916871ca8d3c208c16d87cfd4703066020830152843560408301526020850135606083015260408501356080830152606085013560a08301527f2d4d9aa7e302d9df41749d5507949d05dbea33fbb16c643b22f599a2be6df2e260c08301527f14bedd503c37ceb061d8ec60209fe345ce89830a19230301f076caff004d192660e08301527f0967032fcbf776d1afc985f88877f182d38480a653f2decaa9794cbc3bf3060c6101008301527f0e187847ad4c798374d0d6732bf501847dd68bc0e071241e0213bc7fc13db7ab6101208301527f304cfbd1e08a704a99f5e847d93f8c3caafddec46b7a0d379da69a4d112346a76101408301527f1739c1b1a457a8c7313123d24d2f9192f896b7c63eea05a9d57f06547ad0cec8610160830152600088015161018083015260206000018801516101a08301527f198e9393920d483a7260bfb731fb5d25f1aa493335a9e71297e485b7aef312c26101c08301527f1800deef121f1e76426a00665e5c4479674322d4f75edadd46debd5cd992f6ed6101e08301527f090689d0585ff075ec9e99ad690c3395bc4b313370b38ef355acdadcd122975b6102008301527f12c85ea5db8c6deb4aab71808dcb408fe3d1e7690c43d37b4ce6cc0166fa7daa610220830152853561024083015260208601356102608301527f198e9393920d483a7260bfb731fb5d25f1aa493335a9e71297e485b7aef312c26102808301527f1800deef121f1e76426a00665e5c4479674322d4f75edadd46debd5cd992f6ed6102a08301527f090689d0585ff075ec9e99ad690c3395bc4b313370b38ef355acdadcd122975b6102c08301527f12c85ea5db8c6deb4aab71808dcb408fe3d1e7690c43d37b4ce6cc0166fa7daa6102e08301526020826103008460086107d05a03fa82518116935050505095945050505050565b60405161038081016040526106346000840135610067565b6106416020840135610067565b61064e6040840135610067565b61065b6060840135610067565b6106686080840135610067565b61067560a0840135610067565b610682818486888a610106565b8060005260206000f35b600080fd5b600080fd5b6000819050826020600202820111156106b2576106b1610691565b5b92915050565b6000819050826040600202820111156106d4576106d3610691565b5b92915050565b6000819050826020600602820111156106f6576106f5610691565b5b92915050565b6000806000806101c085870312156107175761071661068c565b5b600061072587828801610696565b9450506040610736878288016106b8565b93505060c061074787828801610696565b925050610100610759878288016106da565b91505092959194509250565b60008115159050919050565b61077a81610765565b82525050565b60006020820190506107956000830184610771565b9291505056fea26469706673582212206cef30364798aeacb46d623fe03cde879c0d4251d61e6477516951845fbf6fd764736f6c63430008140033",
  "linkReferences": {},
  "deployedLinkReferences": {}
}