{"src/contracts/ETAVerifier.sol":{"ZKETAVerifier":{"abi":[{"inputs":[{"internalType":"address","name":"_verifier","type":"address"}],"stateMutability":"nonpayable","type":"constructor"},{"inputs":[{"internalType":"address","name":"owner","type":"address"}],"name":"OwnableInvalidOwner","type":"error"},{"inputs":[{"internalType":"address","name":"account","type":"address"}],"name":"OwnableUnauthorizedAccount","type":"error"},{"anonymous":false,"inputs":[{"indexed":true,"internalType":"address","name":"previousOwner","type":"address"},{"indexed":true,"internalType":"address","name":"newOwner","type":"address"}],"name":"OwnershipTransferred","type":"event"},{"anonymous":false,"inputs":[{"indexed":true,"internalType":"bytes32","name":"proofHash","type":"bytes32"},{"indexed":true,"internalType":"address","name":"verifier","type":"address"},{"indexed":false,"internalType":"uint256","name":"timestamp","type":"uint256"}],"name":"ProofVerified","type":"event"},{"inputs":[],"name":"owner","outputs":[{"internalType":"address","name":"","type":"address"}],"stateMutability":"view","type":"function"},{"inputs":[],"name":"renounceOwnership","outputs":[],"stateMutability":"nonpayable","type":"function"},{"inputs":[{"internalType":"address","name":"newOwner","type":"address"}],"name":"transferOwnership","outputs":[],"stateMutability":"nonpayable","type":"function"},{"inputs":[{"internalType":"bytes32","name":"","type":"bytes32"}],"name":"verifiedProofs","outputs":[{"internalType":"bool","name":"","type":"bool"}],"stateMutability":"view","type":"function"},{"inputs":[],"name":"verifier","outputs":[{"internalType":"contract Verifier","name":"","type":"address"}],"stateMutability":"view","type":"function"},{"inputs":[{"internalType":"uint256[2]","name":"a","type":"uint256[2]"},{"internalType":"uint256[2][2]","name":"b","type":"uint256[2][2]"},{"internalType":"uint256[2]","name":"c","type":"uint256[2]"},{"internalType":"uint256[6]","name":"input","type":"uint256[6]"}],"name":"verifyProof","outputs":[{"internalType":"bool","name":"","type":"bool"}],"stateMutability":"nonpayable","type":"function"}],"evm":{"bytecode":{"linkReferences":{},"object":"60a06040523480156200001157600080fd5b506040516200137138038062001371833981810160405281019062000037919062000228565b33600073ffffffffffffffffffffffffffffffffffffffff168173ffffffffffffffffffffffffffffffffffffffff1603620000ad5760006040517f1e4fbdf7000000000000000000000000000000000000000000000000000000008152600401620000a491906200026b565b60405180910390fd5b620000be81620000fa60201b60201c565b508073ffffffffffffffffffffffffffffffffffffffff1660808173ffffffffffffffffffffffffffffffffffffffff16815250505062000288565b60008060009054906101000a900473ffffffffffffffffffffffffffffffffffffffff169050816000806101000a81548173ffffffffffffffffffffffffffffffffffffffff021916908373ffffffffffffffffffffffffffffffffffffffff1602179055508173ffffffffffffffffffffffffffffffffffffffff168173ffffffffffffffffffffffffffffffffffffffff167f8be0079c531659141344cd1fd0a4f28419497f9722a3daafe3b4186f6b6457e060405160405180910390a35050565b600080fd5b600073ffffffffffffffffffffffffffffffffffffffff82169050919050565b6000620001f082620001c3565b9050919050565b6200020281620001e3565b81146200020e57600080fd5b50565b6000815190506200022281620001f7565b92915050565b600060208284031215620002415762000240620001be565b5b6000620002518482850162000211565b91505092915050565b6200026581620001e3565b82525050565b60006020820190506200028260008301846200025a565b92915050565b6080516110c6620002ab6000396000818161014b01526102c501526110c66000f3fe608060405234801561001057600080fd5b50600436106100625760003560e01c8063176d80c4146100675780632b7ac3f314610097578063715018a6146100b55780638da5cb5b146100bf578063f2fde38b146100dd578063f398789b146100f9575b600080fd5b610081600480360381019061007c91906105c1565b610129565b60405161008e9190610609565b60405180910390f35b61009f610149565b6040516100ac91906106a3565b60405180910390f35b6100bd61016d565b005b6100c7610181565b6040516100d491906106df565b60405180910390f35b6100f760048036038101906100f29190610726565b6101aa565b005b610113600480360381019061010e9190610a32565b610230565b6040516101209190610609565b60405180910390f35b60016020528060005260406000206000915054906101000a900460ff1681565b7f000000000000000000000000000000000000000000000000000000000000000081565b610175610429565b61017f60006104b0565b565b60008060009054906101000a900473ffffffffffffffffffffffffffffffffffffffff16905090565b6101b2610429565b600073ffffffffffffffffffffffffffffffffffffffff168173ffffffffffffffffffffffffffffffffffffffff16036102245760006040517f1e4fbdf700000000000000000000000000000000000000000000000000000000815260040161021b91906106df565b60405180910390fd5b61022d816104b0565b50565b6000808585858560405160200161024a9493929190610cc8565b6040516020818303038152906040528051906020012090506001600082815260200190815260200160002060009054906101000a900460ff16156102c3576040517f08c379a00000000000000000000000000000000000000000000000000000000081526004016102ba90610d73565b60405180910390fd5b7f000000000000000000000000000000000000000000000000000000000000000073ffffffffffffffffffffffffffffffffffffffff1663f398789b878787876040518563ffffffff1660e01b81526004016103229493929190610f5a565b602060405180830381865afa15801561033f573d6000803e3d6000fd5b505050506040513d601f19601f820116820180604052508101906103639190610fcd565b6103a2576040517f08c379a000000000000000000000000000000000000000000000000000000000815260040161039990611046565b60405180910390fd5b600180600083815260200190815260200160002060006101000a81548160ff0219169083151502179055503373ffffffffffffffffffffffffffffffffffffffff16817f3cbbb4765049102f7d16784aa5e5d53a1f94d5da6878a63974ffabb4989147d6426040516104149190611075565b60405180910390a36001915050949350505050565b610431610574565b73ffffffffffffffffffffffffffffffffffffffff1661044f610181565b73ffffffffffffffffffffffffffffffffffffffff16146104ae57610472610574565b6040517f118cdaa70000000000000000000000000000000000000000000000000000000081526004016104a591906106df565b60405180910390fd5b565b60008060009054906101000a900473ffffffffffffffffffffffffffffffffffffffff169050816000806101000a81548173ffffffffffffffffffffffffffffffffffffffff021916908373ffffffffffffffffffffffffffffffffffffffff1602179055508173ffffffffffffffffffffffffffffffffffffffff168173ffffffffffffffffffffffffffffffffffffffff167f8be0079c531659141344cd1fd0a4f28419497f9722a3daafe3b4186f6b6457e060405160405180910390a35050565b600033905090565b6000604051905090565b600080fd5b6000819050919050565b61059e8161058b565b81146105a957600080fd5b50565b6000813590506105bb81610595565b92915050565b6000602082840312156105d7576105d6610586565b5b60006105e5848285016105ac565b91505092915050565b60008115159050919050565b610603816105ee565b82525050565b600060208201905061061e60008301846105fa565b92915050565b600073ffffffffffffffffffffffffffffffffffffffff82169050919050565b6000819050919050565b600061066961066461065f84610624565b610644565b610624565b9050919050565b600061067b8261064e565b9050919050565b600061068d82610670565b9050919050565b61069d81610682565b82525050565b60006020820190506106b86000830184610694565b92915050565b60006106c982610624565b9050919050565b6106d9816106be565b82525050565b60006020820190506106f460008301846106d0565b92915050565b610703816106be565b811461070e57600080fd5b50565b600081359050610720816106fa565b92915050565b60006020828403121561073c5761073b610586565b5b600061074a84828501610711565b91505092915050565b600080fd5b6000601f19601f8301169050919050565b7f4e487b7100000000000000000000000000000000000000000000000000000000600052604160045260246000fd5b6107a182610758565b810181811067ffffffffffffffff821117156107c0576107bf610769565b5b80604052505050565b60006107d361057c565b90506107df8282610798565b919050565b600067ffffffffffffffff8211156107ff576107fe610769565b5b602082029050919050565b600080fd5b6000819050919050565b6108228161080f565b811461082d57600080fd5b50565b60008135905061083f81610819565b92915050565b6000610858610853846107e4565b6107c9565b905080602084028301858111156108725761087161080a565b5b835b8181101561089b57806108878882610830565b845260208401935050602081019050610874565b5050509392505050565b600082601f8301126108ba576108b9610753565b5b60026108c7848285610845565b91505092915050565b600067ffffffffffffffff8211156108eb576108ea610769565b5b602082029050919050565b6000610909610904846108d0565b6107c9565b905080604084028301858111156109235761092261080a565b5b835b8181101561094c578061093888826108a5565b845260208401935050604081019050610925565b5050509392505050565b600082601f83011261096b5761096a610753565b5b60026109788482856108f6565b91505092915050565b600067ffffffffffffffff82111561099c5761099b610769565b5b602082029050919050565b60006109ba6109b584610981565b6107c9565b905080602084028301858111156109d4576109d361080a565b5b835b818110156109fd57806109e98882610830565b8452602084019350506020810190506109d6565b5050509392505050565b600082601f830112610a1c57610a1b610753565b5b6006610a298482856109a7565b91505092915050565b6000806000806101c08587031215610a4d57610a4c610586565b5b6000610a5b878288016108a5565b9450506040610a6c87828801610956565b93505060c0610a7d878288016108a5565b925050610100610a8f87828801610a07565b91505092959194509250565b600060029050919050565b600081905092915050565b6000819050919050565b610ac48161080f565b82525050565b6000610ad68383610abb565b60208301905092915050565b6000602082019050919050565b610af881610a9b565b610b028184610aa6565b9250610b0d82610ab1565b8060005b83811015610b3e578151610b258782610aca565b9650610b3083610ae2565b925050600181019050610b11565b505050505050565b600060029050919050565b600081905092915050565b6000819050919050565b600081905092915050565b610b7a81610a9b565b610b848184610b66565b9250610b8f82610ab1565b8060005b83811015610bc0578151610ba78782610aca565b9650610bb283610ae2565b925050600181019050610b93565b505050505050565b6000610bd48383610b71565b60408301905092915050565b6000602082019050919050565b610bf681610b46565b610c008184610b51565b9250610c0b82610b5c565b8060005b83811015610c3c578151610c238782610bc8565b9650610c2e83610be0565b925050600181019050610c0f565b505050505050565b600060069050919050565b600081905092915050565b6000819050919050565b6000602082019050919050565b610c7a81610c44565b610c848184610c4f565b9250610c8f82610c5a565b8060005b83811015610cc0578151610ca78782610aca565b9650610cb283610c64565b925050600181019050610c93565b505050505050565b6000610cd48287610aef565b604082019150610ce48286610bed565b608082019150610cf48285610aef565b604082019150610d048284610c71565b60c08201915081905095945050505050565b600082825260208201905092915050565b7f50726f6f6620616c726561647920766572696669656400000000000000000000600082015250565b6000610d5d601683610d16565b9150610d6882610d27565b602082019050919050565b60006020820190508181036000830152610d8c81610d50565b9050919050565b600081905092915050565b610da78161080f565b82525050565b6000610db98383610d9e565b60208301905092915050565b610dce81610a9b565b610dd88184610d93565b9250610de382610ab1565b8060005b83811015610e14578151610dfb8782610dad565b9650610e0683610ae2565b925050600181019050610de7565b505050505050565b600081905092915050565b600081905092915050565b610e3b81610a9b565b610e458184610e27565b9250610e5082610ab1565b8060005b83811015610e81578151610e688782610dad565b9650610e7383610ae2565b925050600181019050610e54565b505050505050565b6000610e958383610e32565b60408301905092915050565b610eaa81610b46565b610eb48184610e1c565b9250610ebf82610b5c565b8060005b83811015610ef0578151610ed78782610e89565b9650610ee283610be0565b925050600181019050610ec3565b505050505050565b600081905092915050565b610f0c81610c44565b610f168184610ef8565b9250610f2182610c5a565b8060005b83811015610f52578151610f398782610dad565b9650610f4483610c64565b925050600181019050610f25565b505050505050565b60006101c082019050610f706000830187610dc5565b610f7d6040830186610ea1565b610f8a60c0830185610dc5565b610f98610100830184610f03565b95945050505050565b610faa816105ee565b8114610fb557600080fd5b50565b600081519050610fc781610fa1565b92915050565b600060208284031215610fe357610fe2610586565b5b6000610ff184828501610fb8565b91505092915050565b7f496e76616c69642070726f6f6600000000000000000000000000000000000000600082015250565b6000611030600d83610d16565b915061103b82610ffa565b602082019050919050565b6000602082019050818103600083015261105f81611023565b9050919050565b61106f8161080f565b82525050565b600060208201905061108a6000830184611066565b9291505056fea264697066735822122088b4ccbc030dc5153af75605f9c2341acb0e7fa94e8f4b15ca1f86f91009700d64736f6c63430008140033","opcodes":"PUSH1 0xA0 PUSH1 0x40 MSTORE CALLVALUE DUP1 ISZERO PUSH3 0x11 JUMPI PUSH1 0x0 DUP1 REVERT JUMPDEST POP PUSH1 0x40 MLOAD PUSH3 0x1371 CODESIZE SUB DUP1 PUSH3 0x1371 DUP4 CODECOPY DUP2 DUP2 ADD PUSH1 0x40 MSTORE DUP2 ADD SWAP1 PUSH3 0x37 SWAP2 SWAP1 PUSH3 0x228 JUMP JUMPDEST CALLER PUSH1 0x0 PUSH20 0xFFFFFFFFFFFFFFFFFFFFFFFFFFFFFFFFFFFFFFFF AND DUP2 PUSH20 0xFFFFFFFFFFFFFFFFFFFFFFFFFFFFFFFFFFFFFFFF AND SUB PUSH3 0xAD JUMPI PUSH1 0x0 PUSH1 0x40 MLOAD PUSH32 0x1E4FBDF700000000000000000000000000000000000000000000000000000000 DUP2 MSTORE PUSH1 0x4 ADD PUSH3 0xA4 SWAP2 SWAP1 PUSH3 0x26B JUMP JUMPDEST PUSH1 0x40 MLOAD DUP1 SWAP2 SUB SWAP1 REVERT JUMPDEST PUSH3 0xBE DUP2 PUSH3 0xFA PUSH1 0x20 SHL PUSH1 0x20 SHR JUMP JUMPDEST POP DUP1 PUSH20 0xFFFFFFFFFFFFFFFFFFFFFFFFFFFFFFFFFFFFFFFF AND PUSH1 0x80 DUP2 PUSH20 0xFFFFFFFFFFFFFFFFFFFFFFFFFFFFFFFFFFFFFFFF AND DUP2 MSTORE POP POP POP PUSH3 0x288 JUMP JUMPDEST PUSH1 0x0 DUP1 PUSH1 0x0 SWAP1 SLOAD SWAP1 PUSH2 0x100 EXP SWAP1 DIV PUSH20 0xFFFFFFFFFFFFFFFFFFFFFFFFFFFFFFFFFFFFFFFF AND SWAP1 POP DUP2 PUSH1 0x0 DUP1 PUSH2 0x100 EXP DUP2 SLOAD DUP2 PUSH20 0xFFFFFFFFFFFFFFFFFFFFFFFFFFFFFFFFFFFFFFFF MUL NOT AND SWAP1 DUP4 PUSH20 0xFFFFFFFFFFFFFFFFFFFFFFFFFFFFFFFFFFFFFFFF AND MUL OR SWAP1 SSTORE POP DUP2 PUSH20 0xFFFFFFFFFFFFFFFFFFFFFFFFFFFFFFFFFFFFFFFF AND DUP2 PUSH20 0xFFFFFFFFFFFFFFFFFFFFFFFFFFFFFFFFFFFFFFFF AND PUSH32 0x8BE0079C531659141344CD1FD0A4F28419497F9722A3DAAFE3B4186F6B6457E0 PUSH1 0x40 MLOAD PUSH1 0x40 MLOAD DUP1 SWAP2 SUB SWAP1 LOG3 POP POP JUMP JUMPDEST PUSH1 0x0 DUP1 REVERT JUMPDEST PUSH1 0x0 PUSH20 0xFFFFFFFFFFFFFFFFFFFFFFFFFFFFFFFFFFFFFFFF DUP3 AND SWAP1 POP SWAP2 SWAP1 POP JUMP JUMPDEST PUSH1 0x0 PUSH3 0x1F0 DUP3 PUSH3 0x1C3 JUMP JUMPDEST SWAP1 POP SWAP2 SWAP1 POP JUMP JUMPDEST PUSH3 0x202 DUP2 PUSH3 0x1E3 JUMP JUMPDEST DUP2 EQ PUSH3 0x20E JUMPI PUSH1 0x0 DUP1 REVERT JUMPDEST POP JUMP JUMPDEST PUSH1 0x0 DUP2 MLOAD SWAP1 POP PUSH3 0x222 DUP2 PUSH3 0x1F7 JUMP JUMPDEST SWAP3 SWAP2 POP POP JUMP JUMPDEST PUSH1 0x0 PUSH1 0x20 DUP3 DUP5 SUB SLT ISZERO PUSH3 0x241 JUMPI PUSH3 0x240 PUSH3 0x1BE JUMP JUMPDEST JUMPDEST PUSH1 0x0 PUSH3 0x251 DUP5 DUP3 DUP6 ADD PUSH3 0x211 JUMP JUMPDEST SWAP2 POP POP SWAP3 SWAP2 POP POP JUMP JUMPDEST PUSH3 0x265 DUP2 PUSH3 0x1E3 JUMP JUMPDEST DUP3 MSTORE POP POP JUMP JUMPDEST PUSH1 0x0 PUSH1 0x20 DUP3 ADD SWAP1 POP PUSH3 0x282 PUSH1 0x0 DUP4 ADD DUP5 PUSH3 0x25A JUMP JUMPDEST SWAP3 SWAP2 POP POP JUMP JUMPDEST PUSH1 0x80 MLOAD PUSH2 0x10C6 PUSH3 0x2AB PUSH1 0x0 CODECOPY PUSH1 0x0 DUP2 DUP2 PUSH2 0x14B ADD MSTORE PUSH2 0x2C5 ADD MSTORE PUSH2 0x10C6 PUSH1 0x0 RETURN INVALID PUSH1 0x80 PUSH1 0x40 MSTORE CALLVALUE DUP1 ISZERO PUSH2 0x10 JUMPI PUSH1 0x0 DUP1 REVERT JUMPDEST POP PUSH1 0x4 CALLDATASIZE LT PUSH2 0x62 JUMPI PUSH1 0x0 CALLDATALOAD PUSH1 0xE0 SHR DUP1 PUSH4 0x176D80C4 EQ PUSH2 0x67 JUMPI DUP1 PUSH4 0x2B7AC3F3 EQ PUSH2 0x97 JUMPI DUP1 PUSH4 0x715018A6 EQ PUSH2 0xB5 JUMPI DUP1 PUSH4 0x8DA5CB5B EQ PUSH2 0xBF JUMPI DUP1 PUSH4 0xF2FDE38B EQ PUSH2 0xDD JUMPI DUP1 PUSH4 0xF398789B EQ PUSH2 0xF9 JUMPI JUMPDEST PUSH1 0x0 DUP1 REVERT JUMPDEST PUSH2 0x81 PUSH1 0x4 DUP1 CALLDATASIZE SUB DUP2 ADD SWAP1 PUSH2 0x7C SWAP2 SWAP1 PUSH2 0x5C1 JUMP JUMPDEST PUSH2 0x129 JUMP JUMPDEST PUSH1 0x40 MLOAD PUSH2 0x8E SWAP2 SWAP1 PUSH2 0x609 JUMP JUMPDEST PUSH1 0x40 MLOAD DUP1 SWAP2 SUB SWAP1 RETURN JUMPDEST PUSH2 0x9F PUSH2 0x149 JUMP JUMPDEST PUSH1 0x40 MLOAD PUSH2 0xAC SWAP2 SWAP1 PUSH2 0x6A3 JUMP JUMPDEST PUSH1 0x40 MLOAD DUP1 SWAP2 SUB SWAP1 RETURN JUMPDEST PUSH2 0xBD PUSH2 0x16D JUMP JUMPDEST STOP JUMPDEST PUSH2 0xC7 PUSH2 0x181 JUMP JUMPDEST PUSH1 0x40 MLOAD PUSH2 0xD4 SWAP2 SWAP1 PUSH2 0x6DF JUMP JUMPDEST PUSH1 0x40 MLOAD DUP1 SWAP2 SUB SWAP1 RETURN JUMPDEST PUSH2 0xF7 PUSH1 0x4 DUP1 CALLDATASIZE SUB DUP2 ADD SWAP1 PUSH2 0xF2 SWAP2 SWAP1 PUSH2 0x726 JUMP JUMPDEST PUSH2 0x1AA JUMP JUMPDEST STOP JUMPDEST PUSH2 0x113 PUSH1 0x4 DUP1 CALLDATASIZE SUB DUP2 ADD SWAP1 PUSH2 0x10E SWAP2 SWAP1 PUSH2 0xA32 JUMP JUMPDEST PUSH2 0x230 JUMP JUMPDEST PUSH1 0x40 MLOAD PUSH2 0x120 SWAP2 SWAP1 PUSH2 0x609 JUMP JUMPDEST PUSH1 0x40 MLOAD DUP1 SWAP2 SUB SWAP1 RETURN JUMPDEST PUSH1 0x1 PUSH1 0x20 MSTORE DUP1 PUSH1 0x0 MSTORE PUSH1 0x40 PUSH1 0x0 KECCAK256 PUSH1 0x0 SWAP2 POP SLOAD SWAP1 PUSH2 0x100 EXP SWAP1 DIV PUSH1 0xFF AND DUP2 JUMP JUMPDEST PUSH32 0x0 DUP2 JUMP JUMPDEST PUSH2 0x175 PUSH2 0x429 JUMP JUMPDEST PUSH2 0x17F PUSH1 0x0 PUSH2 0x4B0 JUMP JUMPDEST JUMP JUMPDEST PUSH1 0x0 DUP1 PUSH1 0x0 SWAP1 SLOAD SWAP1 PUSH2 0x100 EXP SWAP1 DIV PUSH20 0xFFFFFFFFFFFFFFFFFFFFFFFFFFFFFFFFFFFFFFFF AND SWAP1 POP SWAP1 JUMP JUMPDEST PUSH2 0x1B2 PUSH2 0x429 JUMP JUMPDEST PUSH1 0x0 PUSH20 0xFFFFFFFFFFFFFFFFFFFFFFFFFFFFFFFFFFFFFFFF AND DUP2 PUSH20 0xFFFFFFFFFFFFFFFFFFFFFFFFFFFFFFFFFFFFFFFF AND SUB PUSH2 0x224 JUMPI PUSH1 0x0 PUSH1 0x40 MLOAD PUSH32 0x1E4FBDF700000000000000000000000000000000000000000000000000000000 DUP2 MSTORE PUSH1 0x4 ADD PUSH2 0x21B SWAP2 SWAP1 PUSH2 0x6DF JUMP JUMPDEST PUSH1 0x40 MLOAD DUP1 SWAP2 SUB SWAP1 REVERT JUMPDEST PUSH2 0x22D DUP2 PUSH2 0x4B0 JUMP JUMPDEST POP JUMP JUMPDEST PUSH1 0x0 DUP1 DUP6 DUP6 DUP6 DUP6 PUSH1 0x40 MLOAD PUSH1 0x20 ADD PUSH2 0x24A SWAP5 SWAP4 SWAP3 SWAP2 SWAP1 PUSH2 0xCC8 JUMP JUMPDEST PUSH1 0x40 MLOAD PUSH1 0x20 DUP2 DUP4 SUB SUB DUP2 MSTORE SWAP1 PUSH1 0x40 MSTORE DUP1 MLOAD SWAP1 PUSH1 0x20 ADD KECCAK256 SWAP1 POP PUSH1 0x1 PUSH1 0x0 DUP3 DUP2 MSTORE PUSH1 0x20 ADD SWAP1 DUP2 MSTORE PUSH1 0x20 ADD PUSH1 0x0 KECCAK256 PUSH1 0x0 SWAP1 SLOAD SWAP1 PUSH2 0x100 EXP SWAP1 DIV PUSH1 0xFF AND ISZERO PUSH2 0x2C3 JUMPI PUSH1 0x40 MLOAD PUSH32 0x8C379A000000000000000000000000000000000000000000000000000000000 DUP2 MSTORE PUSH1 0x4 ADD PUSH2 0x2BA SWAP1 PUSH2 0xD73 JUMP JUMPDEST PUSH1 0x40 MLOAD DUP1 SWAP2 SUB SWAP1 REVERT JUMPDEST PUSH32 0x0 PUSH20 0xFFFFFFFFFFFFFFFFFFFFFFFFFFFFFFFFFFFFFFFF AND PUSH4 0xF398789B DUP8 DUP8 DUP8 DUP8 PUSH1 0x40 MLOAD DUP6 PUSH4 0xFFFFFFFF AND PUSH1 0xE0 SHL DUP2 MSTORE PUSH1 0x4 ADD PUSH2 0x322 SWAP5 SWAP4 SWAP3 SWAP2 SWAP1 PUSH2 0xF5A JUMP JUMPDEST PUSH1 0x20 PUSH1 0x40 MLOAD DUP1 DUP4 SUB DUP2 DUP7 GAS STATICCALL ISZERO DUP1 ISZERO PUSH2 0x33F JUMPI RETURNDATASIZE PUSH1 0x0 DUP1 RETURNDATACOPY RETURNDATASIZE PUSH1 0x0 REVERT JUMPDEST POP POP POP POP PUSH1 0x40 MLOAD RETURNDATASIZE PUSH1 0x1F NOT PUSH1 0x1F DUP3 ADD AND DUP3 ADD DUP1 PUSH1 0x40 MSTORE POP DUP2 ADD SWAP1 PUSH2 0x363 SWAP2 SWAP1 PUSH2 0xFCD JUMP JUMPDEST PUSH2 0x3A2 JUMPI PUSH1 0x40 MLOAD PUSH32 0x8C379A000000000000000000000000000000000000000000000000000000000 DUP2 MSTORE PUSH1 0x4 ADD PUSH2 0x399 SWAP1 PUSH2 0x1046 JUMP JUMPDEST PUSH1 0x40 MLOAD DUP1 SWAP2 SUB SWAP1 REVERT JUMPDEST PUSH1 0x1 DUP1 PUSH1 0x0 DUP4 DUP2 MSTORE PUSH1 0x20 ADD SWAP1 DUP2 MSTORE PUSH1 0x20 ADD PUSH1 0x0 KECCAK256 PUSH1 0x0 PUSH2 0x100 EXP DUP2 SLOAD DUP2 PUSH1 0xFF MUL NOT AND SWAP1 DUP4 ISZERO ISZERO MUL OR SWAP1 SSTORE POP CALLER PUSH20 0xFFFFFFFFFFFFFFFFFFFFFFFFFFFFFFFFFFFFFFFF AND DUP2 PUSH32 0x3CBBB4765049102F7D16784AA5E5D53A1F94D5DA6878A63974FFABB4989147D6 TIMESTAMP PUSH1 0x40 MLOAD PUSH2 0x414 SWAP2 SWAP1 PUSH2 0x1075 JUMP JUMPDEST PUSH1 0x40 MLOAD DUP1 SWAP2 SUB SWAP1 LOG3 PUSH1 0x1 SWAP2 POP POP SWAP5 SWAP4 POP POP POP POP JUMP JUMPDEST PUSH2 0x431 PUSH2 0x574 JUMP JUMPDEST PUSH20 0xFFFFFFFFFFFFFFFFFFFFFFFFFFFFFFFFFFFFFFFF AND PUSH2 0x44F PUSH2 0x181 JUMP JUMPDEST PUSH20 0xFFFFFFFFFFFFFFFFFFFFFFFFFFFFFFFFFFFFFFFF AND EQ PUSH2 0x4AE JUMPI PUSH2 0x472 PUSH2 0x574 JUMP JUMPDEST PUSH1 0x40 MLOAD PUSH32 0x118CDAA700000000000000000000000000000000000000000000000000000000 DUP2 MSTORE PUSH1 0x4 ADD PUSH2 0x4A5 SWAP2 SWAP1 PUSH2 0x6DF JUMP JUMPDEST PUSH1 0x40 MLOAD DUP1 SWAP2 SUB SWAP1 REVERT JUMPDEST JUMP JUMPDEST PUSH1 0x0 DUP1 PUSH1 0x0 SWAP1 SLOAD SWAP1 PUSH2 0x100 EXP SWAP1 DIV PUSH20 0xFFFFFFFFFFFFFFFFFFFFFFFFFFFFFFFFFFFFFFFF AND SWAP1 POP DUP2 PUSH1 0x0 DUP1 PUSH2 0x100 EXP DUP2 SLOAD DUP2 PUSH20 0xFFFFFFFFFFFFFFFFFFFFFFFFFFFFFFFFFFFFFFFF MUL NOT AND SWAP1 DUP4 PUSH20 0xFFFFFFFFFFFFFFFFFFFFFFFFFFFFFFFFFFFFFFFF AND MUL OR SWAP1 SSTORE POP DUP2 PUSH20 0xFFFFFFFFFFFFFFFFFFFFFFFFFFFFFFFFFFFFFFFF AND DUP2 PUSH20 0xFFFFFFFFFFFFFFFFFFFFFFFFFFFFFFFFFFFFFFFF AND PUSH32 0x8BE0079C531659141344CD1FD0A4F28419497F9722A3DAAFE3B4186F6B6457E0 PUSH1 0x40 MLOAD PUSH1 0x40 MLOAD DUP1 SWAP2 SUB SWAP1 LOG3 POP POP JUMP JUMPDEST PUSH1 0x0 CALLER SWAP1 POP SWAP1 JUMP JUMPDEST PUSH1 0x0 PUSH1 0x40 MLOAD SWAP1 POP SWAP1 JUMP JUMPDEST PUSH1 0x0 DUP1 REVERT JUMPDEST PUSH1 0x0 DUP2 SWAP1 POP SWAP2 SWAP1 POP JUMP JUMPDEST PUSH2 0x59E DUP2 PUSH2 0x58B JUMP JUMPDEST DUP2 EQ PUSH2 0x5A9 JUMPI PUSH1 0x0 DUP1 REVERT JUMPDEST POP JUMP JUMPDEST PUSH1 0x0 DUP2 CALLDATALOAD SWAP1 POP PUSH2 0x5BB DUP2 PUSH2 0x595 JUMP JUMPDEST SWAP3 SWAP2 POP POP JUMP JUMPDEST PUSH1 0x0 PUSH1 0x20 DUP3 DUP5 SUB SLT ISZERO PUSH2 0x5D7 JUMPI PUSH2 0x5D6 PUSH2 0x586 JUMP JUMPDEST JUMPDEST PUSH1 0x0 PUSH2 0x5E5 DUP5 DUP3 DUP6 ADD PUSH2 0x5AC JUMP JUMPDEST SWAP2 POP POP SWAP3 SWAP2 POP POP JUMP JUMPDEST PUSH1 0x0 DUP2 ISZERO ISZERO SWAP1 POP SWAP2 SWAP1 POP JUMP JUMPDEST PUSH2 0x603 DUP2 PUSH2 0x5EE JUMP JUMPDEST DUP3 MSTORE POP POP JUMP JUMPDEST PUSH1 0x0 PUSH1 0x20 DUP3 ADD SWAP1 POP PUSH2 0x61E PUSH1 0x0 DUP4 ADD DUP5 PUSH2 0x5FA JUMP JUMPDEST SWAP3 SWAP2 POP POP JUMP JUMPDEST PUSH1 0x0 PUSH20 0xFFFFFFFFFFFFFFFFFFFFFFFFFFFFFFFFFFFFFFFF DUP3 AND SWAP1 POP SWAP2 SWAP1 POP JUMP JUMPDEST PUSH1 0x0 DUP2 SWAP1 POP SWAP2 SWAP1 POP JUMP JUMPDEST PUSH1 0x0 PUSH2 0x669 PUSH2 0x664 PUSH2 0x65F DUP5 PUSH2 0x624 JUMP JUMPDEST PUSH2 0x644 JUMP JUMPDEST PUSH2 0x624 JUMP JUMPDEST SWAP1 POP SWAP2 SWAP1 POP JUMP JUMPDEST PUSH1 0x0 PUSH2 0x67B DUP3 PUSH2 0x64E JUMP JUMPDEST SWAP1 POP SWAP2 SWAP1 POP JUMP JUMPDEST PUSH1 0x0 PUSH2 0x68D DUP3 PUSH2 0x670 JUMP JUMPDEST SWAP1 POP SWAP2 SWAP1 POP JUMP JUMPDEST PUSH2 0x69D DUP2 PUSH2 0x682 JUMP JUMPDEST DUP3 MSTORE POP POP JUMP JUMPDEST PUSH1 0x0 PUSH1 0x20 DUP3 ADD SWAP1 POP PUSH2 0x6B8 PUSH1 0x0 DUP4 ADD DUP5 PUSH2 0x694 JUMP JUMPDEST SWAP3 SWAP2 POP POP JUMP JUMPDEST PUSH1 0x0 PUSH2 0x6C9 DUP3 PUSH2 0x624 JUMP JUMPDEST SWAP1 POP SWAP2 SWAP1 POP JUMP JUMPDEST PUSH2 0x6D9 DUP2 PUSH2 0x6BE JUMP JUMPDEST DUP3 MSTORE POP POP JUMP JUMPDEST PUSH1 0x0 PUSH1 0x20 DUP3 ADD SWAP1 POP PUSH2 0x6F4 PUSH1 0x0 DUP4 ADD DUP5 PUSH2 0x6D0 JUMP JUMPDEST SWAP3 SWAP2 POP POP JUMP JUMPDEST PUSH2 0x703 DUP2 PUSH2 0x6BE JUMP JUMPDEST DUP2 EQ PUSH2 0x70E JUMPI PUSH1 0x0 DUP1 REVERT JUMPDEST POP JUMP JUMPDEST PUSH1 0x0 DUP2 CALLDATALOAD SWAP1 POP PUSH2 0x720 DUP2 PUSH2 0x6FA JUMP JUMPDEST SWAP3 SWAP2 POP POP JUMP JUMPDEST PUSH1 0x0 PUSH1 0x20 DUP3 DUP5 SUB SLT ISZERO PUSH2 0x73C JUMPI PUSH2 0x73B PUSH2 0x586 JUMP JUMPDEST JUMPDEST PUSH1 0x0 PUSH2 0x74A DUP5 DUP3 DUP6 ADD PUSH2 0x711 JUMP JUMPDEST SWAP2 POP POP SWAP3 SWAP2 POP POP JUMP JUMPDEST PUSH1 0x0 DUP1 REVERT JUMPDEST PUSH1 0x0 PUSH1 0x1F NOT PUSH1 0x1F DUP4 ADD AND SWAP1 POP SWAP2 SWAP1 POP JUMP JUMPDEST PUSH32 0x4E487B7100000000000000000000000000000000000000000000000000000000 PUSH1 0x0 MSTORE PUSH1 0x41 PUSH1 0x4 MSTORE PUSH1 0x24 PUSH1 0x0 REVERT JUMPDEST PUSH2 0x7A1 DUP3 PUSH2 0x758 JUMP JUMPDEST DUP2 ADD DUP2 DUP2 LT PUSH8 0xFFFFFFFFFFFFFFFF DUP3 GT OR ISZERO PUSH2 0x7C0 JUMPI PUSH2 0x7BF PUSH2 0x769 JUMP JUMPDEST JUMPDEST DUP1 PUSH1 0x40 MSTORE POP POP POP JUMP JUMPDEST PUSH1 0x0 PUSH2 0x7D3 PUSH2 0x57C JUMP JUMPDEST SWAP1 POP PUSH2 0x7DF DUP3 DUP3 PUSH2 0x798 JUMP JUMPDEST SWAP2 SWAP1 POP JUMP JUMPDEST PUSH1 0x0 PUSH8 0xFFFFFFFFFFFFFFFF DUP3 GT ISZERO PUSH2 0x7FF JUMPI PUSH2 0x7FE PUSH2 0x769 JUMP JUMPDEST JUMPDEST PUSH1 0x20 DUP3 MUL SWAP1 POP SWAP2 SWAP1 POP JUMP JUMPDEST PUSH1 0x0 DUP1 REVERT JUMPDEST PUSH1 0x0 DUP2 SWAP1 POP SWAP2 SWAP1 POP JUMP JUMPDEST PUSH2 0x822 DUP2 PUSH2 0x80F JUMP JUMPDEST DUP2 EQ PUSH2 0x82D JUMPI PUSH1 0x0 DUP1 REVERT JUMPDEST POP JUMP JUMPDEST PUSH1 0x0 DUP2 CALLDATALOAD SWAP1 POP PUSH2 0x83F DUP2 PUSH2 0x819 JUMP JUMPDEST SWAP3 SWAP2 POP POP JUMP JUMPDEST PUSH1 0x0 PUSH2 0x858 PUSH2 0x853 DUP5 PUSH2 0x7E4 JUMP JUMPDEST PUSH2 0x7C9 JUMP JUMPDEST SWAP1 POP DUP1 PUSH1 0x20 DUP5 MUL DUP4 ADD DUP6 DUP2 GT ISZERO PUSH2 0x872 JUMPI PUSH2 0x871 PUSH2 0x80A JUMP JUMPDEST JUMPDEST DUP4 JUMPDEST DUP2 DUP2 LT ISZERO PUSH2 0x89B JUMPI DUP1 PUSH2 0x887 DUP9 DUP3 PUSH2 0x830 JUMP JUMPDEST DUP5 MSTORE PUSH1 0x20 DUP5 ADD SWAP4 POP POP PUSH1 0x20 DUP2 ADD SWAP1 POP PUSH2 0x874 JUMP JUMPDEST POP POP POP SWAP4 SWAP3 POP POP POP JUMP JUMPDEST PUSH1 0x0 DUP3 PUSH1 0x1F DUP4 ADD SLT PUSH2 0x8BA JUMPI PUSH2 0x8B9 PUSH2 0x753 JUMP JUMPDEST JUMPDEST PUSH1 0x2 PUSH2 0x8C7 DUP5 DUP3 DUP6 PUSH2 0x845 JUMP JUMPDEST SWAP2 POP POP SWAP3 SWAP2 POP POP JUMP JUMPDEST PUSH1 0x0 PUSH8 0xFFFFFFFFFFFFFFFF DUP3 GT ISZERO PUSH2 0x8EB JUMPI PUSH2 0x8EA PUSH2 0x769 JUMP JUMPDEST JUMPDEST PUSH1 0x20 DUP3 MUL SWAP1 POP SWAP2 SWAP1 POP JUMP JUMPDEST PUSH1 0x0 PUSH2 0x909 PUSH2 0x904 DUP5 PUSH2 0x8D0 JUMP JUMPDEST PUSH2 0x7C9 JUMP JUMPDEST SWAP1 POP DUP1 PUSH1 0x40 DUP5 MUL DUP4 ADD DUP6 DUP2 GT ISZERO PUSH2 0x923 JUMPI PUSH2 0x922 PUSH2 0x80A JUMP JUMPDEST JUMPDEST DUP4 JUMPDEST DUP2 DUP2 LT ISZERO PUSH2 0x94C JUMPI DUP1 PUSH2 0x938 DUP9 DUP3 PUSH2 0x8A5 JUMP JUMPDEST DUP5 MSTORE PUSH1 0x20 DUP5 ADD SWAP4 POP POP PUSH1 0x40 DUP2 ADD SWAP1 POP PUSH2 0x925 JUMP JUMPDEST POP POP POP SWAP4 SWAP3 POP POP POP JUMP JUMPDEST PUSH1 0x0 DUP3 PUSH1 0x1F DUP4 ADD SLT PUSH2 0x96B JUMPI PUSH2 0x96A PUSH2 0x753 JUMP JUMPDEST JUMPDEST PUSH1 0x2 PUSH2 0x978 DUP5 DUP3 DUP6 PUSH2 0x8F6 JUMP JUMPDEST SWAP2 POP POP SWAP3 SWAP2 POP POP JUMP JUMPDEST PUSH1 0x0 PUSH8 0xFFFFFFFFFFFFFFFF DUP3 GT ISZERO PUSH2 0x99C JUMPI PUSH2 0x99B PUSH2 0x769 JUMP JUMPDEST JUMPDEST PUSH1 0x20 DUP3 MUL SWAP1 POP SWAP2 SWAP1 POP JUMP JUMPDEST PUSH1 0x0 PUSH2 0x9BA PUSH2 0x9B5 DUP5 PUSH2 0x981 JUMP JUMPDEST PUSH2 0x7C9 JUMP JUMPDEST SWAP1 POP DUP1 PUSH1 0x20 DUP5 MUL DUP4 ADD DUP6 DUP2 GT ISZERO PUSH2 0x9D4 JUMPI PUSH2 0x9D3 PUSH2 0x80A JUMP JUMPDEST JUMPDEST DUP4 JUMPDEST DUP2 DUP2 LT ISZERO PUSH2 0x9FD JUMPI DUP1 PUSH2 0x9E9 DUP9 DUP3 PUSH2 0x830 JUMP JUMPDEST DUP5 MSTORE PUSH1 0x20 DUP5 ADD SWAP4 POP POP PUSH1 0x20 DUP2 ADD SWAP1 POP PUSH2 0x9D6 JUMP JUMPDEST POP POP POP SWAP4 SWAP3 POP POP POP JUMP JUMPDEST PUSH1 0x0 DUP3 PUSH1 0x1F DUP4 ADD SLT PUSH2 0xA1C JUMPI PUSH2 0xA1B PUSH2 0x753 JUMP JUMPDEST JUMPDEST PUSH1 0x6 PUSH2 0xA29 DUP5 DUP3 DUP6 PUSH2 0x9A7 JUMP JUMPDEST SWAP2 POP POP SWAP3 SWAP2 POP POP JUMP JUMPDEST PUSH1 0x0 DUP1 PUSH1 0x0 DUP1 PUSH2 0x1C0 DUP6 DUP8 SUB SLT ISZERO PUSH2 0xA4D JUMPI PUSH2 0xA4C PUSH2 0x586 JUMP JUMPDEST JUMPDEST PUSH1 0x0 PUSH2 0xA5B DUP8 DUP3 DUP9 ADD PUSH2 0x8A5 JUMP JUMPDEST SWAP5 POP POP PUSH1 0x40 PUSH2 0xA6C DUP8 DUP3 DUP9 ADD PUSH2 0x956 JUMP JUMPDEST SWAP4 POP POP PUSH1 0xC0 PUSH2 0xA7D DUP8 DUP3 DUP9 ADD PUSH2 0x8A5 JUMP JUMPDEST SWAP3 POP POP PUSH2 0x100 PUSH2 0xA8F DUP8 DUP3 DUP9 ADD PUSH2 0xA07 JUMP JUMPDEST SWAP2 POP POP SWAP3 SWAP6 SWAP2 SWAP5 POP SWAP3 POP JUMP JUMPDEST PUSH1 0x0 PUSH1 0x2 SWAP1 POP SWAP2 SWAP1 POP JUMP JUMPDEST PUSH1 0x0 DUP2 SWAP1 POP SWAP3 SWAP2 POP POP JUMP JUMPDEST PUSH1 0x0 DUP2 SWAP1 POP SWAP2 SWAP1 POP JUMP JUMPDEST PUSH2 0xAC4 DUP2 PUSH2 0x80F JUMP JUMPDEST DUP3 MSTORE POP POP JUMP JUMPDEST PUSH1 0x0 PUSH2 0xAD6 DUP4 DUP4 PUSH2 0xABB JUMP JUMPDEST PUSH1 0x20 DUP4 ADD SWAP1 POP SWAP3 SWAP2 POP POP JUMP JUMPDEST PUSH1 0x0 PUSH1 0x20 DUP3 ADD SWAP1 POP SWAP2 SWAP1 POP JUMP JUMPDEST PUSH2 0xAF8 DUP2 PUSH2 0xA9B JUMP JUMPDEST PUSH2 0xB02 DUP2 DUP5 PUSH2 0xAA6 JUMP JUMPDEST SWAP3 POP PUSH2 0xB0D DUP3 PUSH2 0xAB1 JUMP JUMPDEST DUP1 PUSH1 0x0 JUMPDEST DUP4 DUP2 LT ISZERO PUSH2 0xB3E JUMPI DUP2 MLOAD PUSH2 0xB25 DUP8 DUP3 PUSH2 0xACA JUMP JUMPDEST SWAP7 POP PUSH2 0xB30 DUP4 PUSH2 0xAE2 JUMP JUMPDEST SWAP3 POP POP PUSH1 0x1 DUP2 ADD SWAP1 POP PUSH2 0xB11 JUMP JUMPDEST POP POP POP POP POP POP JUMP JUMPDEST PUSH1 0x0 PUSH1 0x2 SWAP1 POP SWAP2 SWAP1 POP JUMP JUMPDEST PUSH1 0x0 DUP2 SWAP1 POP SWAP3 SWAP2 POP POP JUMP JUMPDEST PUSH1 0x0 DUP2 SWAP1 POP SWAP2 SWAP1 POP JUMP JUMPDEST PUSH1 0x0 DUP2 SWAP1 POP SWAP3 SWAP2 POP POP JUMP JUMPDEST PUSH2 0xB7A DUP2 PUSH2 0xA9B JUMP JUMPDEST PUSH2 0xB84 DUP2 DUP5 PUSH2 0xB66 JUMP JUMPDEST SWAP3 POP PUSH2 0xB8F DUP3 PUSH2 0xAB1 JUMP JUMPDEST DUP1 PUSH1 0x0 JUMPDEST DUP4 DUP2 LT ISZERO PUSH2 0xBC0 JUMPI DUP2 MLOAD PUSH2 0xBA7 DUP8 DUP3 PUSH2 0xACA JUMP JUMPDEST SWAP7 POP PUSH2 0xBB2 DUP4 PUSH2 0xAE2 JUMP JUMPDEST SWAP3 POP POP PUSH1 0x1 DUP2 ADD SWAP1 POP PUSH2 0xB93 JUMP JUMPDEST POP POP POP POP POP POP JUMP JUMPDEST PUSH1 0x0 PUSH2 0xBD4 DUP4 DUP4 PUSH2 0xB71 JUMP JUMPDEST PUSH1 0x40 DUP4 ADD SWAP1 POP SWAP3 SWAP2 POP POP JUMP JUMPDEST PUSH1 0x0 PUSH1 0x20 DUP3 ADD SWAP1 POP SWAP2 SWAP1 POP JUMP JUMPDEST PUSH2 0xBF6 DUP2 PUSH2 0xB46 JUMP JUMPDEST PUSH2 0xC00 DUP2 DUP5 PUSH2 0xB51 JUMP JUMPDEST SWAP3 POP PUSH2 0xC0B DUP3 PUSH2 0xB5C JUMP JUMPDEST DUP1 PUSH1 0x0 JUMPDEST DUP4 DUP2 LT ISZERO PUSH2 0xC3C JUMPI DUP2 MLOAD PUSH2 0xC23 DUP8 DUP3 PUSH2 0xBC8 JUMP JUMPDEST SWAP7 POP PUSH2 0xC2E DUP4 PUSH2 0xBE0 JUMP JUMPDEST SWAP3 POP POP PUSH1 0x1 DUP2 ADD SWAP1 POP PUSH2 0xC0F JUMP JUMPDEST POP POP POP POP POP POP JUMP JUMPDEST PUSH1 0x0 PUSH1 0x6 SWAP1 POP SWAP2 SWAP1 POP JUMP JUMPDEST PUSH1 0x0 DUP2 SWAP1 POP SWAP3 SWAP2 POP POP JUMP JUMPDEST PUSH1 0x0 DUP2 SWAP1 POP SWAP2 SWAP1 POP JUMP JUMPDEST PUSH1 0x0 PUSH1 0x20 DUP3 ADD SWAP1 POP SWAP2 SWAP1 POP JUMP JUMPDEST PUSH2 0xC7A DUP2 PUSH2 0xC44 JUMP JUMPDEST PUSH2 0xC84 DUP2 DUP5 PUSH2 0xC4F JUMP JUMPDEST SWAP3 POP PUSH2 0xC8F DUP3 PUSH2 0xC5A JUMP JUMPDEST DUP1 PUSH1 0x0 JUMPDEST DUP4 DUP2 LT ISZERO PUSH2 0xCC0 JUMPI DUP2 MLOAD PUSH2 0xCA7 DUP8 DUP3 PUSH2 0xACA JUMP JUMPDEST SWAP7 POP PUSH2 0xCB2 DUP4 PUSH2 0xC64 JUMP JUMPDEST SWAP3 POP POP PUSH1 0x1 DUP2 ADD SWAP1 POP PUSH2 0xC93 JUMP JUMPDEST POP POP POP POP POP POP JUMP JUMPDEST PUSH1 0x0 PUSH2 0xCD4 DUP3 DUP8 PUSH2 0xAEF JUMP JUMPDEST PUSH1 0x40 DUP3 ADD SWAP2 POP PUSH2 0xCE4 DUP3 DUP7 PUSH2 0xBED JUMP JUMPDEST PUSH1 0x80 DUP3 ADD SWAP2 POP PUSH2 0xCF4 DUP3 DUP6 PUSH2 0xAEF JUMP JUMPDEST PUSH1 0x40 DUP3 ADD SWAP2 POP PUSH2 0xD04 DUP3 DUP5 PUSH2 0xC71 JUMP JUMPDEST PUSH1 0xC0 DUP3 ADD SWAP2 POP DUP2 SWAP1 POP SWAP6 SWAP5 POP POP POP POP POP JUMP JUMPDEST PUSH1 0x0 DUP3 DUP3 MSTORE PUSH1 0x20 DUP3 ADD SWAP1 POP SWAP3 SWAP2 POP POP JUMP JUMPDEST PUSH32 0x50726F6F6620616C726561647920766572696669656400000000000000000000 PUSH1 0x0 DUP3 ADD MSTORE POP JUMP JUMPDEST PUSH1 0x0 PUSH2 0xD5D PUSH1 0x16 DUP4 PUSH2 0xD16 JUMP JUMPDEST SWAP2 POP PUSH2 0xD68 DUP3 PUSH2 0xD27 JUMP JUMPDEST PUSH1 0x20 DUP3 ADD SWAP1 POP SWAP2 SWAP1 POP JUMP JUMPDEST PUSH1 0x0 PUSH1 0x20 DUP3 ADD SWAP1 POP DUP2 DUP2 SUB PUSH1 0x0 DUP4 ADD MSTORE PUSH2 0xD8C DUP2 PUSH2 0xD50 JUMP JUMPDEST SWAP1 POP SWAP2 SWAP1 POP JUMP JUMPDEST PUSH1 0x0 DUP2 SWAP1 POP SWAP3 SWAP2 POP POP JUMP JUMPDEST PUSH2 0xDA7 DUP2 PUSH2 0x80F JUMP JUMPDEST DUP3 MSTORE POP POP JUMP JUMPDEST PUSH1 0x0 PUSH2 0xDB9 DUP4 DUP4 PUSH2 0xD9E JUMP JUMPDEST PUSH1 0x20 DUP4 ADD SWAP1 POP SWAP3 SWAP2 POP POP JUMP JUMPDEST PUSH2 0xDCE DUP2 PUSH2 0xA9B JUMP JUMPDEST PUSH2 0xDD8 DUP2 DUP5 PUSH2 0xD93 JUMP JUMPDEST SWAP3 POP PUSH2 0xDE3 DUP3 PUSH2 0xAB1 JUMP JUMPDEST DUP1 PUSH1 0x0 JUMPDEST DUP4 DUP2 LT ISZERO PUSH2 0xE14 JUMPI DUP2 MLOAD PUSH2 0xDFB DUP8 DUP3 PUSH2 0xDAD JUMP JUMPDEST SWAP7 POP PUSH2 0xE06 DUP4 PUSH2 0xAE2 JUMP JUMPDEST SWAP3 POP POP PUSH1 0x1 DUP2 ADD SWAP1 POP PUSH2 0xDE7 JUMP JUMPDEST POP POP POP POP POP POP JUMP JUMPDEST PUSH1 0x0 DUP2 SWAP1 POP SWAP3 SWAP2 POP POP JUMP JUMPDEST PUSH1 0x0 DUP2 SWAP1 POP SWAP3 SWAP2 POP POP JUMP JUMPDEST PUSH2 0xE3B DUP2 PUSH2 0xA9B JUMP JUMPDEST PUSH2 0xE45 DUP2 DUP5 PUSH2 0xE27 JUMP JUMPDEST SWAP3 POP PUSH2 0xE50 DUP3 PUSH2 0xAB1 JUMP JUMPDEST DUP1 PUSH1 0x0 JUMPDEST DUP4 DUP2 LT ISZERO PUSH2 0xE81 JUMPI DUP2 MLOAD PUSH2 0xE68 DUP8 DUP3 PUSH2 0xDAD JUMP JUMPDEST SWAP7 POP PUSH2 0xE73 DUP4 PUSH2 0xAE2 JUMP JUMPDEST SWAP3 POP POP PUSH1 0x1 DUP2 ADD SWAP1 POP PUSH2 0xE54 JUMP JUMPDEST POP POP POP POP POP POP JUMP JUMPDEST PUSH1 0x0 PUSH2 0xE95 DUP4 DUP4 PUSH2 0xE32 JUMP JUMPDEST PUSH1 0x40 DUP4 ADD SWAP1 POP SWAP3 SWAP2 POP POP JUMP JUMPDEST PUSH2 0xEAA DUP2 PUSH2 0xB46 JUMP JUMPDEST PUSH2 0xEB4 DUP2 DUP5 PUSH2 0xE1C JUMP JUMPDEST SWAP3 POP PUSH2 0xEBF DUP3 PUSH2 0xB5C JUMP JUMPDEST DUP1 PUSH1 0x0 JUMPDEST DUP4 DUP2 LT ISZERO PUSH2 0xEF0 JUMPI DUP2 MLOAD PUSH2 0xED7 DUP8 DUP3 PUSH2 0xE89 JUMP JUMPDEST SWAP7 POP PUSH2 0xEE2 DUP4 PUSH2 0xBE0 JUMP JUMPDEST SWAP3 POP POP PUSH1 0x1 DUP2 ADD SWAP1 POP PUSH2 0xEC3 JUMP JUMPDEST POP POP POP POP POP POP JUMP JUMPDEST PUSH1 0x0 DUP2 SWAP1 POP SWAP3 SWAP2 POP POP JUMP JUMPDEST PUSH2 0xF0C DUP2 PUSH2 0xC44 JUMP JUMPDEST PUSH2 0xF16 DUP2 DUP5 PUSH2 0xEF8 JUMP JUMPDEST SWAP3 POP PUSH2 0xF21 DUP3 PUSH2 0xC5A JUMP JUMPDEST DUP1 PUSH1 0x0 JUMPDEST DUP4 DUP2 LT ISZERO PUSH2 0xF52 JUMPI DUP2 MLOAD PUSH2 0xF39 DUP8 DUP3 PUSH2 0xDAD JUMP JUMPDEST SWAP7 POP PUSH2 0xF44 DUP4 PUSH2 0xC64 JUMP JUMPDEST SWAP3 POP POP PUSH1 0x1 DUP2 ADD SWAP1 POP PUSH2 0xF25 JUMP JUMPDEST POP POP POP POP POP POP JUMP JUMPDEST PUSH1 0x0 PUSH2 0x1C0 DUP3 ADD SWAP1 POP PUSH2 0xF70 PUSH1 0x0 DUP4 ADD DUP8 PUSH2 0xDC5 JUMP JUMPDEST PUSH2 0xF7D PUSH1 0x40 DUP4 ADD DUP7 PUSH2 0xEA1 JUMP JUMPDEST PUSH2 0xF8A PUSH1 0xC0 DUP4 ADD DUP6 PUSH2 0xDC5 JUMP JUMPDEST PUSH2 0xF98 PUSH2 0x100 DUP4 ADD DUP5 PUSH2 0xF03 JUMP JUMPDEST SWAP6 SWAP5 POP POP POP POP POP JUMP JUMPDEST PUSH2 0xFAA DUP2 PUSH2 0x5EE JUMP JUMPDEST DUP2 EQ PUSH2 0xFB5 JUMPI PUSH1 0x0 DUP1 REVERT JUMPDEST POP JUMP JUMPDEST PUSH1 0x0 DUP2 MLOAD SWAP1 POP PUSH2 0xFC7 DUP2 PUSH2 0xFA1 JUMP JUMPDEST SWAP3 SWAP2 POP POP JUMP JUMPDEST PUSH1 0x0 PUSH1 0x20 DUP3 DUP5 SUB SLT ISZERO PUSH2 0xFE3 JUMPI PUSH2 0xFE2 PUSH2 0x586 JUMP JUMPDEST JUMPDEST PUSH1 0x0 PUSH2 0xFF1 DUP5 DUP3 DUP6 ADD PUSH2 0xFB8 JUMP JUMPDEST SWAP2 POP POP SWAP3 SWAP2 POP POP JUMP JUMPDEST PUSH32 0x496E76616C69642070726F6F6600000000000000000000000000000000000000 PUSH1 0x0 DUP3 ADD MSTORE POP JUMP JUMPDEST PUSH1 0x0 PUSH2 0x1030 PUSH1 0xD DUP4 PUSH2 0xD16 JUMP JUMPDEST SWAP2 POP PUSH2 0x103B DUP3 PUSH2 0xFFA JUMP JUMPDEST PUSH1 0x20 DUP3 ADD SWAP1 POP SWAP2 SWAP1 POP JUMP JUMPDEST PUSH1 0x0 PUSH1 0x20 DUP3 ADD SWAP1 POP DUP2 DUP2 SUB PUSH1 0x0 DUP4 ADD MSTORE PUSH2 0x105F DUP2 PUSH2 0x1023 JUMP JUMPDEST SWAP1 POP SWAP2 SWAP1 POP JUMP JUMPDEST PUSH2 0x106F DUP2 PUSH2 0x80F JUMP JUMPDEST DUP3 MSTORE POP POP JUMP JUMPDEST PUSH1 0x0 PUSH1 0x20 DUP3 ADD SWAP1 POP PUSH2 0x108A PUSH1 0x0 DUP4 ADD DUP5 PUSH2 0x1066 JUMP JUMPDEST SWAP3 SWAP2 POP POP JUMP INVALID LOG2 PUSH5 0x6970667358 0x22 SLT KECCAK256 DUP9 0xB4 0xCC 0xBC SUB 0xD 0xC5 ISZERO GASPRICE 0xF7 JUMP SDIV 0xF9 0xC2 CALLVALUE BYTE 0xCB 0xE PUSH32 0xA94E8F4B15CA1F86F91009700D64736F6C634300081400330000000000000000 "},"methodIdentifiers":{"owner()":"8da5cb5b","renounceOwnership()":"715018a6","transferOwnership(address)":"f2fde38b","verifiedProofs(bytes32)":"176d80c4","verifier()":"2b7ac3f3","verifyProof(uint256[2],uint256[2][2],uint256[2],uint256[6])":"f398789b"}}}}}