{"src/contracts/ETACircuitVerifier.sol":{"Groth16Verifier":{"abi":[{"inputs":[{"internalType":"uint256[2]","name":"_pA","type":"uint256[2]"},{"internalType":"uint256[2][2]","name":"_pB","type":"uint256[2][2]"},{"internalType":"uint256[2]","name":"_pC","type":"uint256[2]"},{"internalType":"uint256[6]","name":"_pubSignals","type":"uint256[6]"}],"name":"verifyProof","outputs":[{"internalType":"bool","name":"","type":"bool"}],"stateMutability":"view","type":"function"}],"evm":{"bytecode":{"linkReferences":{},"object":"608060405234801561001057600080fd5b506107d1806100206000396000f3fe608060405234801561001057600080fd5b506004361061002b5760003560e01c8063f398789b14610030575b600080fd5b61004a600480360381019061004591906106fc565b610060565b6040516100579190610780565b60405180910390f35b600061061c565b7f30644e72e131a029b85045b68181585d2833e84879b9709143e1f593f00000018110610098576000805260206000f35b50565b600060405183815284602082015285604082015260408160608360076107d05a03fa9150816100ce576000805260206000f35b825160408201526020830151606082015260408360808360066107d05a03fa9150816100fe576000805260206000f35b505050505050565b600060808601600087017f10fe0c77dfff2faa11d018df05d6268bf09fc774d43a4db6a6e3fff0e424270481527f2c0c8057fc3d17ce817c4d136550bbaba7f57a35974fb09f33fd1865dfba608560208201526101a960008801357f0ab33d694a878ebf5330b67808e9021784b90d2de69bba69e5beaa9403ce6c017f0f6993508ae90926766b9d689f4fe8d1c14ee3c5f339081a2f8254c8f410f6a78461009b565b6101f960208801357f14eb531c2c4ff9e558f1d506fa965d650a6e617cead8369c2be39b1a3cbfab9b7f0abadbe27805f27dbf2e06322fc4eb3a7789a0b7203023f1c592bab9e50011268461009b565b61024960408801357f1b1c77708e7a877a07524c5250be634f649ed1e717e20b0c1142e064fa3e9c327f1bc269dd578877e42953685b832efcbadc20925c51e0af1f55623f040e010a6c8461009b565b61029960608801357f1dde832daa9c9902108f50951ed361f0261674337d66550017376a0d4872346a7f1f64e666f95a90cf926fa921bc31e5c9b50790a93d8855ae97052d21f1724d5d8461009b565b6102e860808801357e1a9a44982846ac22dfcd86761c710a317436b33bbceda499d38b4b41beb2557f06ae76ef3c526e9209f71cf41ba5d3dd14b67fd00672b0861d9600eb93691db28461009b565b61033860a08801357f2918ace75986977eb28f237bc55498cf7c1664bccd93d355d170dbbc6a82ac267f210234908e960ffc11578858e2f6c80d93fe41e9875b3884465858868d24c44e8461009b565b833582527f30644e72e131a029b85045b68181585d97816a916871ca8d3c208c16d87cfd4760208501357f30644e72e131a029b85045b68181585d97816a916871ca8d3c208c16d87cfd4703066020830152843560408301526020850135606083015260408501356080830152606085013560a08301527f2d4d9aa7e302d9df41749d5507949d05dbea33fbb16c643b22f599a2be6df2e260c08301527f14bedd503c37ceb061d8ec60209fe345ce89830a19230301f076caff004d192660e08301527f0967032fcbf776d1afc985f88877f182d38480a653f2decaa9794cbc3bf3060c6101008301527f0e187847ad4c798374d0d6732bf501847dd68bc0e071241e0213bc7fc13db7ab6101208301527f304cfbd1e08a704a99f5e847d93f8c3caafddec46b7a0d379da69a4d112346a76101408301527f1739c1b1a457a8c7313123d24d2f9192f896b7c63eea05a9d57f06547ad0cec8610160830152600088015161018083015260206000018801516101a08301527f198e9393920d483a7260bfb731fb5d25f1aa493335a9e71297e485b7aef312c26101c08301527f1800deef121f1e76426a00665e5c4479674322d4f75edadd46debd5cd992f6ed6101e08301527f090689d0585ff075ec9e99ad690c3395bc4b313370b38ef355acdadcd122975b6102008301527f12c85ea5db8c6deb4aab71808dcb408fe3d1e7690c43d37b4ce6cc0166fa7daa610220830152853561024083015260208601356102608301527f198e9393920d483a7260bfb731fb5d25f1aa493335a9e71297e485b7aef312c26102808301527f1800deef121f1e76426a00665e5c4479674322d4f75edadd46debd5cd992f6ed6102a08301527f090689d0585ff075ec9e99ad690c3395bc4b313370b38ef355acdadcd122975b6102c08301527f12c85ea5db8c6deb4aab71808dcb408fe3d1e7690c43d37b4ce6cc0166fa7daa6102e08301526020826103008460086107d05a03fa82518116935050505095945050505050565b60405161038081016040526106346000840135610067565b6106416020840135610067565b61064e6040840135610067565b61065b6060840135610067565b6106686080840135610067565b61067560a0840135610067565b610682818486888a610106565b8060005260206000f35b600080fd5b600080fd5b6000819050826020600202820111156106b2576106b1610691565b5b92915050565b6000819050826040600202820111156106d4576106d3610691565b5b92915050565b6000819050826020600602820111156106f6576106f5610691565b5b92915050565b6000806000806101c085870312156107175761071661068c565b5b600061072587828801610696565b9450506040610736878288016106b8565b93505060c061074787828801610696565b925050610100610759878288016106da565b91505092959194509250565b60008115159050919050565b61077a81610765565b82525050565b60006020820190506107956000830184610771565b9291505056fea26469706673582212206cef30364798aeacb46d623fe03cde879c0d4251d61e6477516951845fbf6fd764736f6c63430008140033","opcodes":"PUSH1 0x80 PUSH1 0x40 MSTORE CALLVALUE DUP1 ISZERO PUSH2 0x10 JUMPI PUSH1 0x0 DUP1 REVERT JUMPDEST POP PUSH2 0x7D1 DUP1 PUSH2 0x20 PUSH1 0x0 CODECOPY PUSH1 0x0 RETURN INVALID PUSH1 0x80 PUSH1 0x40 MSTORE CALLVALUE DUP1 ISZERO PUSH2 0x10 JUMPI PUSH1 0x0 DUP1 REVERT JUMPDEST POP PUSH1 0x4 CALLDATASIZE LT PUSH2 0x2B JUMPI PUSH1 0x0 CALLDATALOAD PUSH1 0xE0 SHR DUP1 PUSH4 0xF398789B EQ PUSH2 0x30 JUMPI JUMPDEST PUSH1 0x0 DUP1 REVERT JUMPDEST PUSH2 0x4A PUSH1 0x4 DUP1 CALLDATASIZE SUB DUP2 ADD SWAP1 PUSH2 0x45 SWAP2 SWAP1 PUSH2 0x6FC JUMP JUMPDEST PUSH2 0x60 JUMP JUMPDEST PUSH1 0x40 MLOAD PUSH2 0x57 SWAP2 SWAP1 PUSH2 0x780 JUMP JUMPDEST PUSH1 0x40 MLOAD DUP1 SWAP2 SUB SWAP1 RETURN JUMPDEST PUSH1 0x0 PUSH2 0x61C JUMP JUMPDEST PUSH32 0x30644E72E131A029B85045B68181585D2833E84879B9709143E1F593F0000001 DUP2 LT PUSH2 0x98 JUMPI PUSH1 0x0 DUP1 MSTORE PUSH1 0x20 PUSH1 0x0 RETURN JUMPDEST POP JUMP JUMPDEST PUSH1 0x0 PUSH1 0x40 MLOAD DUP4 DUP2 MSTORE DUP5 PUSH1 0x20 DUP3 ADD MSTORE DUP6 PUSH1 0x40 DUP3 ADD MSTORE PUSH1 0x40 DUP2 PUSH1 0x60 DUP4 PUSH1 0x7 PUSH2 0x7D0 GAS SUB STATICCALL SWAP2 POP DUP2 PUSH2 0xCE JUMPI PUSH1 0x0 DUP1 MSTORE PUSH1 0x20 PUSH1 0x0 RETURN JUMPDEST DUP3 MLOAD PUSH1 0x40 DUP3 ADD MSTORE PUSH1 0x20 DUP4 ADD MLOAD PUSH1 0x60 DUP3 ADD MSTORE PUSH1 0x40 DUP4 PUSH1 0x80 DUP4 PUSH1 0x6 PUSH2 0x7D0 GAS SUB STATICCALL SWAP2 POP DUP2 PUSH2 0xFE JUMPI PUSH1 0x0 DUP1 MSTORE PUSH1 0x20 PUSH1 0x0 RETURN JUMPDEST POP POP POP POP POP POP JUMP JUMPDEST PUSH1 0x0 PUSH1 0x80 DUP7 ADD PUSH1 0x0 DUP8 ADD PUSH32 0x10FE0C77DFFF2FAA11D018DF05D6268BF09FC774D43A4DB6A6E3FFF0E4242704 DUP2 MSTORE PUSH32 0x2C0C8057FC3D17CE817C4D136550BBABA7F57A35974FB09F33FD1865DFBA6085 PUSH1 0x20 DUP3 ADD MSTORE PUSH2 0x1A9 PUSH1 0x0 DUP9 ADD CALLDATALOAD PUSH32 0xAB33D694A878EBF5330B67808E9021784B90D2DE69BBA69E5BEAA9403CE6C01 PUSH32 0xF6993508AE90926766B9D689F4FE8D1C14EE3C5F339081A2F8254C8F410F6A7 DUP5 PUSH2 0x9B JUMP JUMPDEST PUSH2 0x1F9 PUSH1 0x20 DUP9 ADD CALLDATALOAD PUSH32 0x14EB531C2C4FF9E558F1D506FA965D650A6E617CEAD8369C2BE39B1A3CBFAB9B PUSH32 0xABADBE27805F27DBF2E06322FC4EB3A7789A0B7203023F1C592BAB9E5001126 DUP5 PUSH2 0x9B JUMP JUMPDEST PUSH2 0x249 PUSH1 0x40 DUP9 ADD CALLDATALOAD PUSH32 0x1B1C77708E7A877A07524C5250BE634F649ED1E717E20B0C1142E064FA3E9C32 PUSH32 0x1BC269DD578877E42953685B832EFCBADC20925C51E0AF1F55623F040E010A6C DUP5 PUSH2 0x9B JUMP JUMPDEST PUSH2 0x299 PUSH1 0x60 DUP9 ADD CALLDATALOAD PUSH32 0x1DDE832DAA9C9902108F50951ED361F0261674337D66550017376A0D4872346A PUSH32 0x1F64E666F95A90CF926FA921BC31E5C9B50790A93D8855AE97052D21F1724D5D DUP5 PUSH2 0x9B JUMP JUMPDEST PUSH2 0x2E8 PUSH1 0x80 DUP9 ADD CALLDATALOAD PUSH31 0x1A9A44982846AC22DFCD86761C710A317436B33BBCEDA499D38B4B41BEB255 PUSH32 0x6AE76EF3C526E9209F71CF41BA5D3DD14B67FD00672B0861D9600EB93691DB2 DUP5 PUSH2 0x9B JUMP JUMPDEST PUSH2 0x338 PUSH1 0xA0 DUP9 ADD CALLDATALOAD PUSH32 0x2918ACE75986977EB28F237BC55498CF7C1664BCCD93D355D170DBBC6A82AC26 PUSH32 0x210234908E960FFC11578858E2F6C80D93FE41E9875B3884465858868D24C44E DUP5 PUSH2 0x9B JUMP JUMPDEST DUP4 CALLDATALOAD DUP3 MSTORE PUSH32 0x30644E72E131A029B85045B68181585D97816A916871CA8D3C208C16D87CFD47 PUSH1 0x20 DUP6 ADD CALLDATALOAD PUSH32 0x30644E72E131A029B85045B68181585D97816A916871CA8D3C208C16D87CFD47 SUB MOD PUSH1 0x20 DUP4 ADD MSTORE DUP5 CALLDATALOAD PUSH1 0x40 DUP4 ADD MSTORE PUSH1 0x20 DUP6 ADD CALLDATALOAD PUSH1 0x60 DUP4 ADD MSTORE PUSH1 0x40 DUP6 ADD CALLDATALOAD PUSH1 0x80 DUP4 ADD MSTORE PUSH1 0x60 DUP6 ADD CALLDATALOAD PUSH1 0xA0 DUP4 ADD MSTORE PUSH32 0x2D4D9AA7E302D9DF41749D5507949D05DBEA33FBB16C643B22F599A2BE6DF2E2 PUSH1 0xC0 DUP4 ADD MSTORE PUSH32 0x14BEDD503C37CEB061D8EC60209FE345CE89830A19230301F076CAFF004D1926 PUSH1 0xE0 DUP4 ADD MSTORE PUSH32 0x967032FCBF776D1AFC985F88877F182D38480A653F2DECAA9794CBC3BF3060C PUSH2 0x100 DUP4 ADD MSTORE PUSH32 0xE187847AD4C798374D0D6732BF501847DD68BC0E071241E0213BC7FC13DB7AB PUSH2 0x120 DUP4 ADD MSTORE PUSH32 0x304CFBD1E08A704A99F5E847D93F8C3CAAFDDEC46B7A0D379DA69A4D112346A7 PUSH2 0x140 DUP4 ADD MSTORE PUSH32 0x1739C1B1A457A8C7313123D24D2F9192F896B7C63EEA05A9D57F06547AD0CEC8 PUSH2 0x160 DUP4 ADD MSTORE PUSH1 0x0 DUP9 ADD MLOAD PUSH2 0x180 DUP4 ADD MSTORE PUSH1 0x20 PUSH1 0x0 ADD DUP9 ADD MLOAD PUSH2 0x1A0 DUP4 ADD MSTORE PUSH32 0x198E9393920D483A7260BFB731FB5D25F1AA493335A9E71297E485B7AEF312C2 PUSH2 0x1C0 DUP4 ADD MSTORE PUSH32 0x1800DEEF121F1E76426A00665E5C4479674322D4F75EDADD46DEBD5CD992F6ED PUSH2 0x1E0 DUP4 ADD MSTORE PUSH32 0x90689D0585FF075EC9E99AD690C3395BC4B313370B38EF355ACDADCD122975B PUSH2 0x200 DUP4 ADD MSTORE PUSH32 0x12C85EA5DB8C6DEB4AAB71808DCB408FE3D1E7690C43D37B4CE6CC0166FA7DAA PUSH2 0x220 DUP4 ADD MSTORE DUP6 CALLDATALOAD PUSH2 0x240 DUP4 ADD MSTORE PUSH1 0x20 DUP7 ADD CALLDATALOAD PUSH2 0x260 DUP4 ADD MSTORE PUSH32 0x198E9393920D483A7260BFB731FB5D25F1AA493335A9E71297E485B7AEF312C2 PUSH2 0x280 DUP4 ADD MSTORE PUSH32 0x1800DEEF121F1E76426A00665E5C4479674322D4F75EDADD46DEBD5CD992F6ED PUSH2 0x2A0 DUP4 ADD MSTORE PUSH32 0x90689D0585FF075EC9E99AD690C3395BC4B313370B38EF355ACDADCD122975B PUSH2 0x2C0 DUP4 ADD MSTORE PUSH32 0x12C85EA5DB8C6DEB4AAB71808DCB408FE3D1E7690C43D37B4CE6CC0166FA7DAA PUSH2 0x2E0 DUP4 ADD MSTORE PUSH1 0x20 DUP3 PUSH2 0x300 DUP5 PUSH1 0x8 PUSH2 0x7D0 GAS SUB STATICCALL DUP3 MLOAD DUP2 AND SWAP4 POP POP POP POP SWAP6 SWAP5 POP POP POP POP POP JUMP JUMPDEST PUSH1 0x40 MLOAD PUSH2 0x380 DUP2 ADD PUSH1 0x40 MSTORE PUSH2 0x634 PUSH1 0x0 DUP5 ADD CALLDATALOAD PUSH2 0x67 JUMP JUMPDEST PUSH2 0x641 PUSH1 0x20 DUP5 ADD CALLDATALOAD PUSH2 0x67 JUMP JUMPDEST PUSH2 0x64E PUSH1 0x40 DUP5 ADD CALLDATALOAD PUSH2 0x67 JUMP JUMPDEST PUSH2 0x65B PUSH1 0x60 DUP5 ADD CALLDATALOAD PUSH2 0x67 JUMP JUMPDEST PUSH2 0x668 PUSH1 0x80 DUP5 ADD CALLDATALOAD PUSH2 0x67 JUMP JUMPDEST PUSH2 0x675 PUSH1 0xA0 DUP5 ADD CALLDATALOAD PUSH2 0x67 JUMP JUMPDEST PUSH2 0x682 DUP2 DUP5 DUP7 DUP9 DUP11 PUSH2 0x106 JUMP JUMPDEST DUP1 PUSH1 0x0 MSTORE PUSH1 0x20 PUSH1 0x0 RETURN JUMPDEST PUSH1 0x0 DUP1 REVERT JUMPDEST PUSH1 0x0 DUP1 REVERT JUMPDEST PUSH1 0x0 DUP2 SWAP1 POP DUP3 PUSH1 0x20 PUSH1 0x2 MUL DUP3 ADD GT ISZERO PUSH2 0x6B2 JUMPI PUSH2 0x6B1 PUSH2 0x691 JUMP JUMPDEST JUMPDEST SWAP3 SWAP2 POP POP JUMP JUMPDEST PUSH1 0x0 DUP2 SWAP1 POP DUP3 PUSH1 0x40 PUSH1 0x2 MUL DUP3 ADD GT ISZERO PUSH2 0x6D4 JUMPI PUSH2 0x6D3 PUSH2 0x691 JUMP JUMPDEST JUMPDEST SWAP3 SWAP2 POP POP JUMP JUMPDEST PUSH1 0x0 DUP2 SWAP1 POP DUP3 PUSH1 0x20 PUSH1 0x6 MUL DUP3 ADD GT ISZERO PUSH2 0x6F6 JUMPI PUSH2 0x6F5 PUSH2 0x691 JUMP JUMPDEST JUMPDEST SWAP3 SWAP2 POP POP JUMP JUMPDEST PUSH1 0x0 DUP1 PUSH1 0x0 DUP1 PUSH2 0x1C0 DUP6 DUP8 SUB SLT ISZERO PUSH2 0x717 JUMPI PUSH2 0x716 PUSH2 0x68C JUMP JUMPDEST JUMPDEST PUSH1 0x0 PUSH2 0x725 DUP8 DUP3 DUP9 ADD PUSH2 0x696 JUMP JUMPDEST SWAP5 POP POP PUSH1 0x40 PUSH2 0x736 DUP8 DUP3 DUP9 ADD PUSH2 0x6B8 JUMP JUMPDEST SWAP4 POP POP PUSH1 0xC0 PUSH2 0x747 DUP8 DUP3 DUP9 ADD PUSH2 0x696 JUMP JUMPDEST SWAP3 POP POP PUSH2 0x100 PUSH2 0x759 DUP8 DUP3 DUP9 ADD PUSH2 0x6DA JUMP JUMPDEST SWAP2 POP POP SWAP3 SWAP6 SWAP2 SWAP5 POP SWAP3 POP JUMP JUMPDEST PUSH1 0x0 DUP2 ISZERO ISZERO SWAP1 POP SWAP2 SWAP1 POP JUMP JUMPDEST PUSH2 0x77A DUP2 PUSH2 0x765 JUMP JUMPDEST DUP3 MSTORE POP POP JUMP JUMPDEST PUSH1 0x0 PUSH1 0x20 DUP3 ADD SWAP1 POP PUSH2 0x795 PUSH1 0x0 DUP4 ADD DUP5 PUSH2 0x771 JUMP JUMPDEST SWAP3 SWAP2 POP POP JUMP INVALID LOG2 PUSH5 0x6970667358 0x22 SLT KECCAK256 PUSH13 0xEF30364798AEACB46D623FE03C 0xDE DUP8 SWAP13 0xD TIMESTAMP MLOAD 0xD6 0x1E PUSH5 0x7751695184 PUSH0 0xBF PUSH16 0xD764736F6C6343000814003300000000 "},"methodIdentifiers":{"verifyProof(uint256[2],uint256[2][2],uint256[2],uint256[6])":"f398789b"}}}}}