{"src/contracts/ETAVerifier.sol":{"ZKETAVerifier":{"abi":[{"inputs":[{"internalType":"address","name":"_verifier","type":"address"}],"stateMutability":"nonpayable","type":"constructor"},{"anonymous":false,"inputs":[{"indexed":true,"internalType":"bytes32","name":"proofHash","type":"bytes32"},{"indexed":true,"internalType":"address","name":"verifier","type":"address"},{"indexed":false,"internalType":"string","name":"destination","type":"string"},{"indexed":false,"internalType":"uint256","name":"actualETA","type":"uint256"},{"indexed":false,"internalType":"bool","name":"verified","type":"bool"},{"indexed":false,"internalType":"uint256","name":"timestamp","type":"uint256"}],"name":"ProofVerified","type":"event"},{"inputs":[{"internalType":"bytes32","name":"","type":"bytes32"}],"name":"verifiedProofs","outputs":[{"internalType":"bool","name":"","type":"bool"}],"stateMutability":"view","type":"function"},{"inputs":[],"name":"verifier","outputs":[{"internalType":"contract IVerifier","name":"","type":"address"}],"stateMutability":"view","type":"function"},{"inputs":[{"internalType":"uint256[2]","name":"a","type":"uint256[2]"},{"internalType":"uint256[2][2]","name":"b","type":"uint256[2][2]"},{"internalType":"uint256[2]","name":"c","type":"uint256[2]"},{"internalType":"uint256[6]","name":"input","type":"uint256[6]"},{"internalType":"string","name":"destination","type":"string"}],"name":"verifyProof","outputs":[{"internalType":"bool","name":"","type":"bool"}],"stateMutability":"nonpayable","type":"function"}],"evm":{"bytecode":{"linkReferences":{},"object":"60a060405234801561001057600080fd5b506040516200100638038062001006833981810160405281019061003491906100d1565b8073ffffffffffffffffffffffffffffffffffffffff1660808173ffffffffffffffffffffffffffffffffffffffff1681525050506100fe565b600080fd5b600073ffffffffffffffffffffffffffffffffffffffff82169050919050565b600061009e82610073565b9050919050565b6100ae81610093565b81146100b957600080fd5b50565b6000815190506100cb816100a5565b92915050565b6000602082840312156100e7576100e661006e565b5b60006100f5848285016100bc565b91505092915050565b608051610ee6620001206000396000818160e6015261019e0152610ee66000f3fe608060405234801561001057600080fd5b50600436106100415760003560e01c8063176d80c4146100465780632b7ac3f314610076578063fa5b4f9a14610094575b600080fd5b610060600480360381019061005b919061032e565b6100c4565b60405161006d9190610376565b60405180910390f35b61007e6100e4565b60405161008b9190610410565b60405180910390f35b6100ae60048036038101906100a991906107bf565b610108565b6040516100bb9190610376565b60405180910390f35b60006020528060005260406000206000915054906101000a900460ff1681565b7f000000000000000000000000000000000000000000000000000000000000000081565b600080868686866040516020016101229493929190610a86565b60405160208183030381529060405280519060200120905060008082815260200190815260200160002060009054906101000a900460ff161561019a576040517f08c379a000000000000000000000000000000000000000000000000000000000815260040161019190610b31565b60405180910390fd5b60007f000000000000000000000000000000000000000000000000000000000000000073ffffffffffffffffffffffffffffffffffffffff1663f398789b898989896040518563ffffffff1660e01b81526004016101fb9493929190610d18565b602060405180830381865afa158015610218573d6000803e3d6000fd5b505050506040513d601f19601f8201168201806040525081019061023c9190610d8b565b9050600160008084815260200190815260200160002060006101000a81548160ff0219169083151502179055503373ffffffffffffffffffffffffffffffffffffffff16827fd743d3e083ed98eba2f2c06f6669d4ab0c45bb1a45f198ef126d03975c584f8f86886003600681106102b7576102b6610db8565b5b602002015185426040516102ce9493929190610e64565b60405180910390a3809250505095945050505050565b6000604051905090565b600080fd5b600080fd5b6000819050919050565b61030b816102f8565b811461031657600080fd5b50565b60008135905061032881610302565b92915050565b600060208284031215610344576103436102ee565b5b600061035284828501610319565b91505092915050565b60008115159050919050565b6103708161035b565b82525050565b600060208201905061038b6000830184610367565b92915050565b600073ffffffffffffffffffffffffffffffffffffffff82169050919050565b6000819050919050565b60006103d66103d16103cc84610391565b6103b1565b610391565b9050919050565b60006103e8826103bb565b9050919050565b60006103fa826103dd565b9050919050565b61040a816103ef565b82525050565b60006020820190506104256000830184610401565b92915050565b600080fd5b6000601f19601f8301169050919050565b7f4e487b7100000000000000000000000000000000000000000000000000000000600052604160045260246000fd5b61047982610430565b810181811067ffffffffffffffff8211171561049857610497610441565b5b80604052505050565b60006104ab6102e4565b90506104b78282610470565b919050565b600067ffffffffffffffff8211156104d7576104d6610441565b5b602082029050919050565b600080fd5b6000819050919050565b6104fa816104e7565b811461050557600080fd5b50565b600081359050610517816104f1565b92915050565b600061053061052b846104bc565b6104a1565b9050806020840283018581111561054a576105496104e2565b5b835b81811015610573578061055f8882610508565b84526020840193505060208101905061054c565b5050509392505050565b600082601f8301126105925761059161042b565b5b600261059f84828561051d565b91505092915050565b600067ffffffffffffffff8211156105c3576105c2610441565b5b602082029050919050565b60006105e16105dc846105a8565b6104a1565b905080604084028301858111156105fb576105fa6104e2565b5b835b818110156106245780610610888261057d565b8452602084019350506040810190506105fd565b5050509392505050565b600082601f8301126106435761064261042b565b5b60026106508482856105ce565b91505092915050565b600067ffffffffffffffff82111561067457610673610441565b5b602082029050919050565b600061069261068d84610659565b6104a1565b905080602084028301858111156106ac576106ab6104e2565b5b835b818110156106d557806106c18882610508565b8452602084019350506020810190506106ae565b5050509392505050565b600082601f8301126106f4576106f361042b565b5b600661070184828561067f565b91505092915050565b600080fd5b600067ffffffffffffffff82111561072a57610729610441565b5b61073382610430565b9050602081019050919050565b82818337600083830152505050565b600061076261075d8461070f565b6104a1565b90508281526020810184848401111561077e5761077d61070a565b5b610789848285610740565b509392505050565b600082601f8301126107a6576107a561042b565b5b81356107b684826020860161074f565b91505092915050565b60008060008060006101e086880312156107dc576107db6102ee565b5b60006107ea8882890161057d565b95505060406107fb8882890161062e565b94505060c061080c8882890161057d565b93505061010061081e888289016106df565b9250506101c086013567ffffffffffffffff8111156108405761083f6102f3565b5b61084c88828901610791565b9150509295509295909350565b600060029050919050565b600081905092915050565b6000819050919050565b610882816104e7565b82525050565b60006108948383610879565b60208301905092915050565b6000602082019050919050565b6108b681610859565b6108c08184610864565b92506108cb8261086f565b8060005b838110156108fc5781516108e38782610888565b96506108ee836108a0565b9250506001810190506108cf565b505050505050565b600060029050919050565b600081905092915050565b6000819050919050565b600081905092915050565b61093881610859565b6109428184610924565b925061094d8261086f565b8060005b8381101561097e5781516109658782610888565b9650610970836108a0565b925050600181019050610951565b505050505050565b6000610992838361092f565b60408301905092915050565b6000602082019050919050565b6109b481610904565b6109be818461090f565b92506109c98261091a565b8060005b838110156109fa5781516109e18782610986565b96506109ec8361099e565b9250506001810190506109cd565b505050505050565b600060069050919050565b600081905092915050565b6000819050919050565b6000602082019050919050565b610a3881610a02565b610a428184610a0d565b9250610a4d82610a18565b8060005b83811015610a7e578151610a658782610888565b9650610a7083610a22565b925050600181019050610a51565b505050505050565b6000610a9282876108ad565b604082019150610aa282866109ab565b608082019150610ab282856108ad565b604082019150610ac28284610a2f565b60c08201915081905095945050505050565b600082825260208201905092915050565b7f50726f6f6620616c726561647920766572696669656400000000000000000000600082015250565b6000610b1b601683610ad4565b9150610b2682610ae5565b602082019050919050565b60006020820190508181036000830152610b4a81610b0e565b9050919050565b600081905092915050565b610b65816104e7565b82525050565b6000610b778383610b5c565b60208301905092915050565b610b8c81610859565b610b968184610b51565b9250610ba18261086f565b8060005b83811015610bd2578151610bb98782610b6b565b9650610bc4836108a0565b925050600181019050610ba5565b505050505050565b600081905092915050565b600081905092915050565b610bf981610859565b610c038184610be5565b9250610c0e8261086f565b8060005b83811015610c3f578151610c268782610b6b565b9650610c31836108a0565b925050600181019050610c12565b505050505050565b6000610c538383610bf0565b60408301905092915050565b610c6881610904565b610c728184610bda565b9250610c7d8261091a565b8060005b83811015610cae578151610c958782610c47565b9650610ca08361099e565b925050600181019050610c81565b505050505050565b600081905092915050565b610cca81610a02565b610cd48184610cb6565b9250610cdf82610a18565b8060005b83811015610d10578151610cf78782610b6b565b9650610d0283610a22565b925050600181019050610ce3565b505050505050565b60006101c082019050610d2e6000830187610b83565b610d3b6040830186610c5f565b610d4860c0830185610b83565b610d56610100830184610cc1565b95945050505050565b610d688161035b565b8114610d7357600080fd5b50565b600081519050610d8581610d5f565b92915050565b600060208284031215610da157610da06102ee565b5b6000610daf84828501610d76565b91505092915050565b7f4e487b7100000000000000000000000000000000000000000000000000000000600052603260045260246000fd5b600081519050919050565b60005b83811015610e10578082015181840152602081019050610df5565b60008484015250505050565b6000610e2782610de7565b610e318185610ad4565b9350610e41818560208601610df2565b610e4a81610430565b840191505092915050565b610e5e816104e7565b82525050565b60006080820190508181036000830152610e7e8187610e1c565b9050610e8d6020830186610e55565b610e9a6040830185610367565b610ea76060830184610e55565b9594505050505056fea2646970667358221220e03340384527155f58149a7e36b200329a53e900eab250180552b1f6e3bbadf764736f6c63430008140033","opcodes":"PUSH1 0xA0 PUSH1 0x40 MSTORE CALLVALUE DUP1 ISZERO PUSH2 0x10 JUMPI PUSH1 0x0 DUP1 REVERT JUMPDEST POP PUSH1 0x40 MLOAD PUSH3 0x1006 CODESIZE SUB DUP1 PUSH3 0x1006 DUP4 CODECOPY DUP2 DUP2 ADD PUSH1 0x40 MSTORE DUP2 ADD SWAP1 PUSH2 0x34 SWAP2 SWAP1 PUSH2 0xD1 JUMP JUMPDEST DUP1 PUSH20 0xFFFFFFFFFFFFFFFFFFFFFFFFFFFFFFFFFFFFFFFF AND PUSH1 0x80 DUP2 PUSH20 0xFFFFFFFFFFFFFFFFFFFFFFFFFFFFFFFFFFFFFFFF AND DUP2 MSTORE POP POP POP PUSH2 0xFE JUMP JUMPDEST PUSH1 0x0 DUP1 REVERT JUMPDEST PUSH1 0x0 PUSH20 0xFFFFFFFFFFFFFFFFFFFFFFFFFFFFFFFFFFFFFFFF DUP3 AND SWAP1 POP SWAP2 SWAP1 POP JUMP JUMPDEST PUSH1 0x0 PUSH2 0x9E DUP3 PUSH2 0x73 JUMP JUMPDEST SWAP1 POP SWAP2 SWAP1 POP JUMP JUMPDEST PUSH2 0xAE DUP2 PUSH2 0x93 JUMP JUMPDEST DUP2 EQ PUSH2 0xB9 JUMPI PUSH1 0x0 DUP1 REVERT JUMPDEST POP JUMP JUMPDEST PUSH1 0x0 DUP2 MLOAD SWAP1 POP PUSH2 0xCB DUP2 PUSH2 0xA5 JUMP JUMPDEST SWAP3 SWAP2 POP POP JUMP JUMPDEST PUSH1 0x0 PUSH1 0x20 DUP3 DUP5 SUB SLT ISZERO PUSH2 0xE7 JUMPI PUSH2 0xE6 PUSH2 0x6E JUMP JUMPDEST JUMPDEST PUSH1 0x0 PUSH2 0xF5 DUP5 DUP3 DUP6 ADD PUSH2 0xBC JUMP JUMPDEST SWAP2 POP POP SWAP3 SWAP2 POP POP JUMP JUMPDEST PUSH1 0x80 MLOAD PUSH2 0xEE6 PUSH3 0x120 PUSH1 0x0 CODECOPY PUSH1 0x0 DUP2 DUP2 PUSH1 0xE6 ADD MSTORE PUSH2 0x19E ADD MSTORE PUSH2 0xEE6 PUSH1 0x0 RETURN INVALID PUSH1 0x80 PUSH1 0x40 MSTORE CALLVALUE DUP1 ISZERO PUSH2 0x10 JUMPI PUSH1 0x0 DUP1 REVERT JUMPDEST POP PUSH1 0x4 CALLDATASIZE LT PUSH2 0x41 JUMPI PUSH1 0x0 CALLDATALOAD PUSH1 0xE0 SHR DUP1 PUSH4 0x176D80C4 EQ PUSH2 0x46 JUMPI DUP1 PUSH4 0x2B7AC3F3 EQ PUSH2 0x76 JUMPI DUP1 PUSH4 0xFA5B4F9A EQ PUSH2 0x94 JUMPI JUMPDEST PUSH1 0x0 DUP1 REVERT JUMPDEST PUSH2 0x60 PUSH1 0x4 DUP1 CALLDATASIZE SUB DUP2 ADD SWAP1 PUSH2 0x5B SWAP2 SWAP1 PUSH2 0x32E JUMP JUMPDEST PUSH2 0xC4 JUMP JUMPDEST PUSH1 0x40 MLOAD PUSH2 0x6D SWAP2 SWAP1 PUSH2 0x376 JUMP JUMPDEST PUSH1 0x40 MLOAD DUP1 SWAP2 SUB SWAP1 RETURN JUMPDEST PUSH2 0x7E PUSH2 0xE4 JUMP JUMPDEST PUSH1 0x40 MLOAD PUSH2 0x8B SWAP2 SWAP1 PUSH2 0x410 JUMP JUMPDEST PUSH1 0x40 MLOAD DUP1 SWAP2 SUB SWAP1 RETURN JUMPDEST PUSH2 0xAE PUSH1 0x4 DUP1 CALLDATASIZE SUB DUP2 ADD SWAP1 PUSH2 0xA9 SWAP2 SWAP1 PUSH2 0x7BF JUMP JUMPDEST PUSH2 0x108 JUMP JUMPDEST PUSH1 0x40 MLOAD PUSH2 0xBB SWAP2 SWAP1 PUSH2 0x376 JUMP JUMPDEST PUSH1 0x40 MLOAD DUP1 SWAP2 SUB SWAP1 RETURN JUMPDEST PUSH1 0x0 PUSH1 0x20 MSTORE DUP1 PUSH1 0x0 MSTORE PUSH1 0x40 PUSH1 0x0 KECCAK256 PUSH1 0x0 SWAP2 POP SLOAD SWAP1 PUSH2 0x100 EXP SWAP1 DIV PUSH1 0xFF AND DUP2 JUMP JUMPDEST PUSH32 0x0 DUP2 JUMP JUMPDEST PUSH1 0x0 DUP1 DUP7 DUP7 DUP7 DUP7 PUSH1 0x40 MLOAD PUSH1 0x20 ADD PUSH2 0x122 SWAP5 SWAP4 SWAP3 SWAP2 SWAP1 PUSH2 0xA86 JUMP JUMPDEST PUSH1 0x40 MLOAD PUSH1 0x20 DUP2 DUP4 SUB SUB DUP2 MSTORE SWAP1 PUSH1 0x40 MSTORE DUP1 MLOAD SWAP1 PUSH1 0x20 ADD KECCAK256 SWAP1 POP PUSH1 0x0 DUP1 DUP3 DUP2 MSTORE PUSH1 0x20 ADD SWAP1 DUP2 MSTORE PUSH1 0x20 ADD PUSH1 0x0 KECCAK256 PUSH1 0x0 SWAP1 SLOAD SWAP1 PUSH2 0x100 EXP SWAP1 DIV PUSH1 0xFF AND ISZERO PUSH2 0x19A JUMPI PUSH1 0x40 MLOAD PUSH32 0x8C379A000000000000000000000000000000000000000000000000000000000 DUP2 MSTORE PUSH1 0x4 ADD PUSH2 0x191 SWAP1 PUSH2 0xB31 JUMP JUMPDEST PUSH1 0x40 MLOAD DUP1 SWAP2 SUB SWAP1 REVERT JUMPDEST PUSH1 0x0 PUSH32 0x0 PUSH20 0xFFFFFFFFFFFFFFFFFFFFFFFFFFFFFFFFFFFFFFFF AND PUSH4 0xF398789B DUP10 DUP10 DUP10 DUP10 PUSH1 0x40 MLOAD DUP6 PUSH4 0xFFFFFFFF AND PUSH1 0xE0 SHL DUP2 MSTORE PUSH1 0x4 ADD PUSH2 0x1FB SWAP5 SWAP4 SWAP3 SWAP2 SWAP1 PUSH2 0xD18 JUMP JUMPDEST PUSH1 0x20 PUSH1 0x40 MLOAD DUP1 DUP4 SUB DUP2 DUP7 GAS STATICCALL ISZERO DUP1 ISZERO PUSH2 0x218 JUMPI RETURNDATASIZE PUSH1 0x0 DUP1 RETURNDATACOPY RETURNDATASIZE PUSH1 0x0 REVERT JUMPDEST POP POP POP POP PUSH1 0x40 MLOAD RETURNDATASIZE PUSH1 0x1F NOT PUSH1 0x1F DUP3 ADD AND DUP3 ADD DUP1 PUSH1 0x40 MSTORE POP DUP2 ADD SWAP1 PUSH2 0x23C SWAP2 SWAP1 PUSH2 0xD8B JUMP JUMPDEST SWAP1 POP PUSH1 0x1 PUSH1 0x0 DUP1 DUP5 DUP2 MSTORE PUSH1 0x20 ADD SWAP1 DUP2 MSTORE PUSH1 0x20 ADD PUSH1 0x0 KECCAK256 PUSH1 0x0 PUSH2 0x100 EXP DUP2 SLOAD DUP2 PUSH1 0xFF MUL NOT AND SWAP1 DUP4 ISZERO ISZERO MUL OR SWAP1 SSTORE POP CALLER PUSH20 0xFFFFFFFFFFFFFFFFFFFFFFFFFFFFFFFFFFFFFFFF AND DUP3 PUSH32 0xD743D3E083ED98EBA2F2C06F6669D4AB0C45BB1A45F198EF126D03975C584F8F DUP7 DUP9 PUSH1 0x3 PUSH1 0x6 DUP2 LT PUSH2 0x2B7 JUMPI PUSH2 0x2B6 PUSH2 0xDB8 JUMP JUMPDEST JUMPDEST PUSH1 0x20 MUL ADD MLOAD DUP6 TIMESTAMP PUSH1 0x40 MLOAD PUSH2 0x2CE SWAP5 SWAP4 SWAP3 SWAP2 SWAP1 PUSH2 0xE64 JUMP JUMPDEST PUSH1 0x40 MLOAD DUP1 SWAP2 SUB SWAP1 LOG3 DUP1 SWAP3 POP POP POP SWAP6 SWAP5 POP POP POP POP POP JUMP JUMPDEST PUSH1 0x0 PUSH1 0x40 MLOAD SWAP1 POP SWAP1 JUMP JUMPDEST PUSH1 0x0 DUP1 REVERT JUMPDEST PUSH1 0x0 DUP1 REVERT JUMPDEST PUSH1 0x0 DUP2 SWAP1 POP SWAP2 SWAP1 POP JUMP JUMPDEST PUSH2 0x30B DUP2 PUSH2 0x2F8 JUMP JUMPDEST DUP2 EQ PUSH2 0x316 JUMPI PUSH1 0x0 DUP1 REVERT JUMPDEST POP JUMP JUMPDEST PUSH1 0x0 DUP2 CALLDATALOAD SWAP1 POP PUSH2 0x328 DUP2 PUSH2 0x302 JUMP JUMPDEST SWAP3 SWAP2 POP POP JUMP JUMPDEST PUSH1 0x0 PUSH1 0x20 DUP3 DUP5 SUB SLT ISZERO PUSH2 0x344 JUMPI PUSH2 0x343 PUSH2 0x2EE JUMP JUMPDEST JUMPDEST PUSH1 0x0 PUSH2 0x352 DUP5 DUP3 DUP6 ADD PUSH2 0x319 JUMP JUMPDEST SWAP2 POP POP SWAP3 SWAP2 POP POP JUMP JUMPDEST PUSH1 0x0 DUP2 ISZERO ISZERO SWAP1 POP SWAP2 SWAP1 POP JUMP JUMPDEST PUSH2 0x370 DUP2 PUSH2 0x35B JUMP JUMPDEST DUP3 MSTORE POP POP JUMP JUMPDEST PUSH1 0x0 PUSH1 0x20 DUP3 ADD SWAP1 POP PUSH2 0x38B PUSH1 0x0 DUP4 ADD DUP5 PUSH2 0x367 JUMP JUMPDEST SWAP3 SWAP2 POP POP JUMP JUMPDEST PUSH1 0x0 PUSH20 0xFFFFFFFFFFFFFFFFFFFFFFFFFFFFFFFFFFFFFFFF DUP3 AND SWAP1 POP SWAP2 SWAP1 POP JUMP JUMPDEST PUSH1 0x0 DUP2 SWAP1 POP SWAP2 SWAP1 POP JUMP JUMPDEST PUSH1 0x0 PUSH2 0x3D6 PUSH2 0x3D1 PUSH2 0x3CC DUP5 PUSH2 0x391 JUMP JUMPDEST PUSH2 0x3B1 JUMP JUMPDEST PUSH2 0x391 JUMP JUMPDEST SWAP1 POP SWAP2 SWAP1 POP JUMP JUMPDEST PUSH1 0x0 PUSH2 0x3E8 DUP3 PUSH2 0x3BB JUMP JUMPDEST SWAP1 POP SWAP2 SWAP1 POP JUMP JUMPDEST PUSH1 0x0 PUSH2 0x3FA DUP3 PUSH2 0x3DD JUMP JUMPDEST SWAP1 POP SWAP2 SWAP1 POP JUMP JUMPDEST PUSH2 0x40A DUP2 PUSH2 0x3EF JUMP JUMPDEST DUP3 MSTORE POP POP JUMP JUMPDEST PUSH1 0x0 PUSH1 0x20 DUP3 ADD SWAP1 POP PUSH2 0x425 PUSH1 0x0 DUP4 ADD DUP5 PUSH2 0x401 JUMP JUMPDEST SWAP3 SWAP2 POP POP JUMP JUMPDEST PUSH1 0x0 DUP1 REVERT JUMPDEST PUSH1 0x0 PUSH1 0x1F NOT PUSH1 0x1F DUP4 ADD AND SWAP1 POP SWAP2 SWAP1 POP JUMP JUMPDEST PUSH32 0x4E487B7100000000000000000000000000000000000000000000000000000000 PUSH1 0x0 MSTORE PUSH1 0x41 PUSH1 0x4 MSTORE PUSH1 0x24 PUSH1 0x0 REVERT JUMPDEST PUSH2 0x479 DUP3 PUSH2 0x430 JUMP JUMPDEST DUP2 ADD DUP2 DUP2 LT PUSH8 0xFFFFFFFFFFFFFFFF DUP3 GT OR ISZERO PUSH2 0x498 JUMPI PUSH2 0x497 PUSH2 0x441 JUMP JUMPDEST JUMPDEST DUP1 PUSH1 0x40 MSTORE POP POP POP JUMP JUMPDEST PUSH1 0x0 PUSH2 0x4AB PUSH2 0x2E4 JUMP JUMPDEST SWAP1 POP PUSH2 0x4B7 DUP3 DUP3 PUSH2 0x470 JUMP JUMPDEST SWAP2 SWAP1 POP JUMP JUMPDEST PUSH1 0x0 PUSH8 0xFFFFFFFFFFFFFFFF DUP3 GT ISZERO PUSH2 0x4D7 JUMPI PUSH2 0x4D6 PUSH2 0x441 JUMP JUMPDEST JUMPDEST PUSH1 0x20 DUP3 MUL SWAP1 POP SWAP2 SWAP1 POP JUMP JUMPDEST PUSH1 0x0 DUP1 REVERT JUMPDEST PUSH1 0x0 DUP2 SWAP1 POP SWAP2 SWAP1 POP JUMP JUMPDEST PUSH2 0x4FA DUP2 PUSH2 0x4E7 JUMP JUMPDEST DUP2 EQ PUSH2 0x505 JUMPI PUSH1 0x0 DUP1 REVERT JUMPDEST POP JUMP JUMPDEST PUSH1 0x0 DUP2 CALLDATALOAD SWAP1 POP PUSH2 0x517 DUP2 PUSH2 0x4F1 JUMP JUMPDEST SWAP3 SWAP2 POP POP JUMP JUMPDEST PUSH1 0x0 PUSH2 0x530 PUSH2 0x52B DUP5 PUSH2 0x4BC JUMP JUMPDEST PUSH2 0x4A1 JUMP JUMPDEST SWAP1 POP DUP1 PUSH1 0x20 DUP5 MUL DUP4 ADD DUP6 DUP2 GT ISZERO PUSH2 0x54A JUMPI PUSH2 0x549 PUSH2 0x4E2 JUMP JUMPDEST JUMPDEST DUP4 JUMPDEST DUP2 DUP2 LT ISZERO PUSH2 0x573 JUMPI DUP1 PUSH2 0x55F DUP9 DUP3 PUSH2 0x508 JUMP JUMPDEST DUP5 MSTORE PUSH1 0x20 DUP5 ADD SWAP4 POP POP PUSH1 0x20 DUP2 ADD SWAP1 POP PUSH2 0x54C JUMP JUMPDEST POP POP POP SWAP4 SWAP3 POP POP POP JUMP JUMPDEST PUSH1 0x0 DUP3 PUSH1 0x1F DUP4 ADD SLT PUSH2 0x592 JUMPI PUSH2 0x591 PUSH2 0x42B JUMP JUMPDEST JUMPDEST PUSH1 0x2 PUSH2 0x59F DUP5 DUP3 DUP6 PUSH2 0x51D JUMP JUMPDEST SWAP2 POP POP SWAP3 SWAP2 POP POP JUMP JUMPDEST PUSH1 0x0 PUSH8 0xFFFFFFFFFFFFFFFF DUP3 GT ISZERO PUSH2 0x5C3 JUMPI PUSH2 0x5C2 PUSH2 0x441 JUMP JUMPDEST JUMPDEST PUSH1 0x20 DUP3 MUL SWAP1 POP SWAP2 SWAP1 POP JUMP JUMPDEST PUSH1 0x0 PUSH2 0x5E1 PUSH2 0x5DC DUP5 PUSH2 0x5A8 JUMP JUMPDEST PUSH2 0x4A1 JUMP JUMPDEST SWAP1 POP DUP1 PUSH1 0x40 DUP5 MUL DUP4 ADD DUP6 DUP2 GT ISZERO PUSH2 0x5FB JUMPI PUSH2 0x5FA PUSH2 0x4E2 JUMP JUMPDEST JUMPDEST DUP4 JUMPDEST DUP2 DUP2 LT ISZERO PUSH2 0x624 JUMPI DUP1 PUSH2 0x610 DUP9 DUP3 PUSH2 0x57D JUMP JUMPDEST DUP5 MSTORE PUSH1 0x20 DUP5 ADD SWAP4 POP POP PUSH1 0x40 DUP2 ADD SWAP1 POP PUSH2 0x5FD JUMP JUMPDEST POP POP POP SWAP4 SWAP3 POP POP POP JUMP JUMPDEST PUSH1 0x0 DUP3 PUSH1 0x1F DUP4 ADD SLT PUSH2 0x643 JUMPI PUSH2 0x642 PUSH2 0x42B JUMP JUMPDEST JUMPDEST PUSH1 0x2 PUSH2 0x650 DUP5 DUP3 DUP6 PUSH2 0x5CE JUMP JUMPDEST SWAP2 POP POP SWAP3 SWAP2 POP POP JUMP JUMPDEST PUSH1 0x0 PUSH8 0xFFFFFFFFFFFFFFFF DUP3 GT ISZERO PUSH2 0x674 JUMPI PUSH2 0x673 PUSH2 0x441 JUMP JUMPDEST JUMPDEST PUSH1 0x20 DUP3 MUL SWAP1 POP SWAP2 SWAP1 POP JUMP JUMPDEST PUSH1 0x0 PUSH2 0x692 PUSH2 0x68D DUP5 PUSH2 0x659 JUMP JUMPDEST PUSH2 0x4A1 JUMP JUMPDEST SWAP1 POP DUP1 PUSH1 0x20 DUP5 MUL DUP4 ADD DUP6 DUP2 GT ISZERO PUSH2 0x6AC JUMPI PUSH2 0x6AB PUSH2 0x4E2 JUMP JUMPDEST JUMPDEST DUP4 JUMPDEST DUP2 DUP2 LT ISZERO PUSH2 0x6D5 JUMPI DUP1 PUSH2 0x6C1 DUP9 DUP3 PUSH2 0x508 JUMP JUMPDEST DUP5 MSTORE PUSH1 0x20 DUP5 ADD SWAP4 POP POP PUSH1 0x20 DUP2 ADD SWAP1 POP PUSH2 0x6AE JUMP JUMPDEST POP POP POP SWAP4 SWAP3 POP POP POP JUMP JUMPDEST PUSH1 0x0 DUP3 PUSH1 0x1F DUP4 ADD SLT PUSH2 0x6F4 JUMPI PUSH2 0x6F3 PUSH2 0x42B JUMP JUMPDEST JUMPDEST PUSH1 0x6 PUSH2 0x701 DUP5 DUP3 DUP6 PUSH2 0x67F JUMP JUMPDEST SWAP2 POP POP SWAP3 SWAP2 POP POP JUMP JUMPDEST PUSH1 0x0 DUP1 REVERT JUMPDEST PUSH1 0x0 PUSH8 0xFFFFFFFFFFFFFFFF DUP3 GT ISZERO PUSH2 0x72A JUMPI PUSH2 0x729 PUSH2 0x441 JUMP JUMPDEST JUMPDEST PUSH2 0x733 DUP3 PUSH2 0x430 JUMP JUMPDEST SWAP1 POP PUSH1 0x20 DUP2 ADD SWAP1 POP SWAP2 SWAP1 POP JUMP JUMPDEST DUP3 DUP2 DUP4 CALLDATACOPY PUSH1 0x0 DUP4 DUP4 ADD MSTORE POP POP POP JUMP JUMPDEST PUSH1 0x0 PUSH2 0x762 PUSH2 0x75D DUP5 PUSH2 0x70F JUMP JUMPDEST PUSH2 0x4A1 JUMP JUMPDEST SWAP1 POP DUP3 DUP2 MSTORE PUSH1 0x20 DUP2 ADD DUP5 DUP5 DUP5 ADD GT ISZERO PUSH2 0x77E JUMPI PUSH2 0x77D PUSH2 0x70A JUMP JUMPDEST JUMPDEST PUSH2 0x789 DUP5 DUP3 DUP6 PUSH2 0x740 JUMP JUMPDEST POP SWAP4 SWAP3 POP POP POP JUMP JUMPDEST PUSH1 0x0 DUP3 PUSH1 0x1F DUP4 ADD SLT PUSH2 0x7A6 JUMPI PUSH2 0x7A5 PUSH2 0x42B JUMP JUMPDEST JUMPDEST DUP2 CALLDATALOAD PUSH2 0x7B6 DUP5 DUP3 PUSH1 0x20 DUP7 ADD PUSH2 0x74F JUMP JUMPDEST SWAP2 POP POP SWAP3 SWAP2 POP POP JUMP JUMPDEST PUSH1 0x0 DUP1 PUSH1 0x0 DUP1 PUSH1 0x0 PUSH2 0x1E0 DUP7 DUP9 SUB SLT ISZERO PUSH2 0x7DC JUMPI PUSH2 0x7DB PUSH2 0x2EE JUMP JUMPDEST JUMPDEST PUSH1 0x0 PUSH2 0x7EA DUP9 DUP3 DUP10 ADD PUSH2 0x57D JUMP JUMPDEST SWAP6 POP POP PUSH1 0x40 PUSH2 0x7FB DUP9 DUP3 DUP10 ADD PUSH2 0x62E JUMP JUMPDEST SWAP5 POP POP PUSH1 0xC0 PUSH2 0x80C DUP9 DUP3 DUP10 ADD PUSH2 0x57D JUMP JUMPDEST SWAP4 POP POP PUSH2 0x100 PUSH2 0x81E DUP9 DUP3 DUP10 ADD PUSH2 0x6DF JUMP JUMPDEST SWAP3 POP POP PUSH2 0x1C0 DUP7 ADD CALLDATALOAD PUSH8 0xFFFFFFFFFFFFFFFF DUP2 GT ISZERO PUSH2 0x840 JUMPI PUSH2 0x83F PUSH2 0x2F3 JUMP JUMPDEST JUMPDEST PUSH2 0x84C DUP9 DUP3 DUP10 ADD PUSH2 0x791 JUMP JUMPDEST SWAP2 POP POP SWAP3 SWAP6 POP SWAP3 SWAP6 SWAP1 SWAP4 POP JUMP JUMPDEST PUSH1 0x0 PUSH1 0x2 SWAP1 POP SWAP2 SWAP1 POP JUMP JUMPDEST PUSH1 0x0 DUP2 SWAP1 POP SWAP3 SWAP2 POP POP JUMP JUMPDEST PUSH1 0x0 DUP2 SWAP1 POP SWAP2 SWAP1 POP JUMP JUMPDEST PUSH2 0x882 DUP2 PUSH2 0x4E7 JUMP JUMPDEST DUP3 MSTORE POP POP JUMP JUMPDEST PUSH1 0x0 PUSH2 0x894 DUP4 DUP4 PUSH2 0x879 JUMP JUMPDEST PUSH1 0x20 DUP4 ADD SWAP1 POP SWAP3 SWAP2 POP POP JUMP JUMPDEST PUSH1 0x0 PUSH1 0x20 DUP3 ADD SWAP1 POP SWAP2 SWAP1 POP JUMP JUMPDEST PUSH2 0x8B6 DUP2 PUSH2 0x859 JUMP JUMPDEST PUSH2 0x8C0 DUP2 DUP5 PUSH2 0x864 JUMP JUMPDEST SWAP3 POP PUSH2 0x8CB DUP3 PUSH2 0x86F JUMP JUMPDEST DUP1 PUSH1 0x0 JUMPDEST DUP4 DUP2 LT ISZERO PUSH2 0x8FC JUMPI DUP2 MLOAD PUSH2 0x8E3 DUP8 DUP3 PUSH2 0x888 JUMP JUMPDEST SWAP7 POP PUSH2 0x8EE DUP4 PUSH2 0x8A0 JUMP JUMPDEST SWAP3 POP POP PUSH1 0x1 DUP2 ADD SWAP1 POP PUSH2 0x8CF JUMP JUMPDEST POP POP POP POP POP POP JUMP JUMPDEST PUSH1 0x0 PUSH1 0x2 SWAP1 POP SWAP2 SWAP1 POP JUMP JUMPDEST PUSH1 0x0 DUP2 SWAP1 POP SWAP3 SWAP2 POP POP JUMP JUMPDEST PUSH1 0x0 DUP2 SWAP1 POP SWAP2 SWAP1 POP JUMP JUMPDEST PUSH1 0x0 DUP2 SWAP1 POP SWAP3 SWAP2 POP POP JUMP JUMPDEST PUSH2 0x938 DUP2 PUSH2 0x859 JUMP JUMPDEST PUSH2 0x942 DUP2 DUP5 PUSH2 0x924 JUMP JUMPDEST SWAP3 POP PUSH2 0x94D DUP3 PUSH2 0x86F JUMP JUMPDEST DUP1 PUSH1 0x0 JUMPDEST DUP4 DUP2 LT ISZERO PUSH2 0x97E JUMPI DUP2 MLOAD PUSH2 0x965 DUP8 DUP3 PUSH2 0x888 JUMP JUMPDEST SWAP7 POP PUSH2 0x970 DUP4 PUSH2 0x8A0 JUMP JUMPDEST SWAP3 POP POP PUSH1 0x1 DUP2 ADD SWAP1 POP PUSH2 0x951 JUMP JUMPDEST POP POP POP POP POP POP JUMP JUMPDEST PUSH1 0x0 PUSH2 0x992 DUP4 DUP4 PUSH2 0x92F JUMP JUMPDEST PUSH1 0x40 DUP4 ADD SWAP1 POP SWAP3 SWAP2 POP POP JUMP JUMPDEST PUSH1 0x0 PUSH1 0x20 DUP3 ADD SWAP1 POP SWAP2 SWAP1 POP JUMP JUMPDEST PUSH2 0x9B4 DUP2 PUSH2 0x904 JUMP JUMPDEST PUSH2 0x9BE DUP2 DUP5 PUSH2 0x90F JUMP JUMPDEST SWAP3 POP PUSH2 0x9C9 DUP3 PUSH2 0x91A JUMP JUMPDEST DUP1 PUSH1 0x0 JUMPDEST DUP4 DUP2 LT ISZERO PUSH2 0x9FA JUMPI DUP2 MLOAD PUSH2 0x9E1 DUP8 DUP3 PUSH2 0x986 JUMP JUMPDEST SWAP7 POP PUSH2 0x9EC DUP4 PUSH2 0x99E JUMP JUMPDEST SWAP3 POP POP PUSH1 0x1 DUP2 ADD SWAP1 POP PUSH2 0x9CD JUMP JUMPDEST POP POP POP POP POP POP JUMP JUMPDEST PUSH1 0x0 PUSH1 0x6 SWAP1 POP SWAP2 SWAP1 POP JUMP JUMPDEST PUSH1 0x0 DUP2 SWAP1 POP SWAP3 SWAP2 POP POP JUMP JUMPDEST PUSH1 0x0 DUP2 SWAP1 POP SWAP2 SWAP1 POP JUMP JUMPDEST PUSH1 0x0 PUSH1 0x20 DUP3 ADD SWAP1 POP SWAP2 SWAP1 POP JUMP JUMPDEST PUSH2 0xA38 DUP2 PUSH2 0xA02 JUMP JUMPDEST PUSH2 0xA42 DUP2 DUP5 PUSH2 0xA0D JUMP JUMPDEST SWAP3 POP PUSH2 0xA4D DUP3 PUSH2 0xA18 JUMP JUMPDEST DUP1 PUSH1 0x0 JUMPDEST DUP4 DUP2 LT ISZERO PUSH2 0xA7E JUMPI DUP2 MLOAD PUSH2 0xA65 DUP8 DUP3 PUSH2 0x888 JUMP JUMPDEST SWAP7 POP PUSH2 0xA70 DUP4 PUSH2 0xA22 JUMP JUMPDEST SWAP3 POP POP PUSH1 0x1 DUP2 ADD SWAP1 POP PUSH2 0xA51 JUMP JUMPDEST POP POP POP POP POP POP JUMP JUMPDEST PUSH1 0x0 PUSH2 0xA92 DUP3 DUP8 PUSH2 0x8AD JUMP JUMPDEST PUSH1 0x40 DUP3 ADD SWAP2 POP PUSH2 0xAA2 DUP3 DUP7 PUSH2 0x9AB JUMP JUMPDEST PUSH1 0x80 DUP3 ADD SWAP2 POP PUSH2 0xAB2 DUP3 DUP6 PUSH2 0x8AD JUMP JUMPDEST PUSH1 0x40 DUP3 ADD SWAP2 POP PUSH2 0xAC2 DUP3 DUP5 PUSH2 0xA2F JUMP JUMPDEST PUSH1 0xC0 DUP3 ADD SWAP2 POP DUP2 SWAP1 POP SWAP6 SWAP5 POP POP POP POP POP JUMP JUMPDEST PUSH1 0x0 DUP3 DUP3 MSTORE PUSH1 0x20 DUP3 ADD SWAP1 POP SWAP3 SWAP2 POP POP JUMP JUMPDEST PUSH32 0x50726F6F6620616C726561647920766572696669656400000000000000000000 PUSH1 0x0 DUP3 ADD MSTORE POP JUMP JUMPDEST PUSH1 0x0 PUSH2 0xB1B PUSH1 0x16 DUP4 PUSH2 0xAD4 JUMP JUMPDEST SWAP2 POP PUSH2 0xB26 DUP3 PUSH2 0xAE5 JUMP JUMPDEST PUSH1 0x20 DUP3 ADD SWAP1 POP SWAP2 SWAP1 POP JUMP JUMPDEST PUSH1 0x0 PUSH1 0x20 DUP3 ADD SWAP1 POP DUP2 DUP2 SUB PUSH1 0x0 DUP4 ADD MSTORE PUSH2 0xB4A DUP2 PUSH2 0xB0E JUMP JUMPDEST SWAP1 POP SWAP2 SWAP1 POP JUMP JUMPDEST PUSH1 0x0 DUP2 SWAP1 POP SWAP3 SWAP2 POP POP JUMP JUMPDEST PUSH2 0xB65 DUP2 PUSH2 0x4E7 JUMP JUMPDEST DUP3 MSTORE POP POP JUMP JUMPDEST PUSH1 0x0 PUSH2 0xB77 DUP4 DUP4 PUSH2 0xB5C JUMP JUMPDEST PUSH1 0x20 DUP4 ADD SWAP1 POP SWAP3 SWAP2 POP POP JUMP JUMPDEST PUSH2 0xB8C DUP2 PUSH2 0x859 JUMP JUMPDEST PUSH2 0xB96 DUP2 DUP5 PUSH2 0xB51 JUMP JUMPDEST SWAP3 POP PUSH2 0xBA1 DUP3 PUSH2 0x86F JUMP JUMPDEST DUP1 PUSH1 0x0 JUMPDEST DUP4 DUP2 LT ISZERO PUSH2 0xBD2 JUMPI DUP2 MLOAD PUSH2 0xBB9 DUP8 DUP3 PUSH2 0xB6B JUMP JUMPDEST SWAP7 POP PUSH2 0xBC4 DUP4 PUSH2 0x8A0 JUMP JUMPDEST SWAP3 POP POP PUSH1 0x1 DUP2 ADD SWAP1 POP PUSH2 0xBA5 JUMP JUMPDEST POP POP POP POP POP POP JUMP JUMPDEST PUSH1 0x0 DUP2 SWAP1 POP SWAP3 SWAP2 POP POP JUMP JUMPDEST PUSH1 0x0 DUP2 SWAP1 POP SWAP3 SWAP2 POP POP JUMP JUMPDEST PUSH2 0xBF9 DUP2 PUSH2 0x859 JUMP JUMPDEST PUSH2 0xC03 DUP2 DUP5 PUSH2 0xBE5 JUMP JUMPDEST SWAP3 POP PUSH2 0xC0E DUP3 PUSH2 0x86F JUMP JUMPDEST DUP1 PUSH1 0x0 JUMPDEST DUP4 DUP2 LT ISZERO PUSH2 0xC3F JUMPI DUP2 MLOAD PUSH2 0xC26 DUP8 DUP3 PUSH2 0xB6B JUMP JUMPDEST SWAP7 POP PUSH2 0xC31 DUP4 PUSH2 0x8A0 JUMP JUMPDEST SWAP3 POP POP PUSH1 0x1 DUP2 ADD SWAP1 POP PUSH2 0xC12 JUMP JUMPDEST POP POP POP POP POP POP JUMP JUMPDEST PUSH1 0x0 PUSH2 0xC53 DUP4 DUP4 PUSH2 0xBF0 JUMP JUMPDEST PUSH1 0x40 DUP4 ADD SWAP1 POP SWAP3 SWAP2 POP POP JUMP JUMPDEST PUSH2 0xC68 DUP2 PUSH2 0x904 JUMP JUMPDEST PUSH2 0xC72 DUP2 DUP5 PUSH2 0xBDA JUMP JUMPDEST SWAP3 POP PUSH2 0xC7D DUP3 PUSH2 0x91A JUMP JUMPDEST DUP1 PUSH1 0x0 JUMPDEST DUP4 DUP2 LT ISZERO PUSH2 0xCAE JUMPI DUP2 MLOAD PUSH2 0xC95 DUP8 DUP3 PUSH2 0xC47 JUMP JUMPDEST SWAP7 POP PUSH2 0xCA0 DUP4 PUSH2 0x99E JUMP JUMPDEST SWAP3 POP POP PUSH1 0x1 DUP2 ADD SWAP1 POP PUSH2 0xC81 JUMP JUMPDEST POP POP POP POP POP POP JUMP JUMPDEST PUSH1 0x0 DUP2 SWAP1 POP SWAP3 SWAP2 POP POP JUMP JUMPDEST PUSH2 0xCCA DUP2 PUSH2 0xA02 JUMP JUMPDEST PUSH2 0xCD4 DUP2 DUP5 PUSH2 0xCB6 JUMP JUMPDEST SWAP3 POP PUSH2 0xCDF DUP3 PUSH2 0xA18 JUMP JUMPDEST DUP1 PUSH1 0x0 JUMPDEST DUP4 DUP2 LT ISZERO PUSH2 0xD10 JUMPI DUP2 MLOAD PUSH2 0xCF7 DUP8 DUP3 PUSH2 0xB6B JUMP JUMPDEST SWAP7 POP PUSH2 0xD02 DUP4 PUSH2 0xA22 JUMP JUMPDEST SWAP3 POP POP PUSH1 0x1 DUP2 ADD SWAP1 POP PUSH2 0xCE3 JUMP JUMPDEST POP POP POP POP POP POP JUMP JUMPDEST PUSH1 0x0 PUSH2 0x1C0 DUP3 ADD SWAP1 POP PUSH2 0xD2E PUSH1 0x0 DUP4 ADD DUP8 PUSH2 0xB83 JUMP JUMPDEST PUSH2 0xD3B PUSH1 0x40 DUP4 ADD DUP7 PUSH2 0xC5F JUMP JUMPDEST PUSH2 0xD48 PUSH1 0xC0 DUP4 ADD DUP6 PUSH2 0xB83 JUMP JUMPDEST PUSH2 0xD56 PUSH2 0x100 DUP4 ADD DUP5 PUSH2 0xCC1 JUMP JUMPDEST SWAP6 SWAP5 POP POP POP POP POP JUMP JUMPDEST PUSH2 0xD68 DUP2 PUSH2 0x35B JUMP JUMPDEST DUP2 EQ PUSH2 0xD73 JUMPI PUSH1 0x0 DUP1 REVERT JUMPDEST POP JUMP JUMPDEST PUSH1 0x0 DUP2 MLOAD SWAP1 POP PUSH2 0xD85 DUP2 PUSH2 0xD5F JUMP JUMPDEST SWAP3 SWAP2 POP POP JUMP JUMPDEST PUSH1 0x0 PUSH1 0x20 DUP3 DUP5 SUB SLT ISZERO PUSH2 0xDA1 JUMPI PUSH2 0xDA0 PUSH2 0x2EE JUMP JUMPDEST JUMPDEST PUSH1 0x0 PUSH2 0xDAF DUP5 DUP3 DUP6 ADD PUSH2 0xD76 JUMP JUMPDEST SWAP2 POP POP SWAP3 SWAP2 POP POP JUMP JUMPDEST PUSH32 0x4E487B7100000000000000000000000000000000000000000000000000000000 PUSH1 0x0 MSTORE PUSH1 0x32 PUSH1 0x4 MSTORE PUSH1 0x24 PUSH1 0x0 REVERT JUMPDEST PUSH1 0x0 DUP2 MLOAD SWAP1 POP SWAP2 SWAP1 POP JUMP JUMPDEST PUSH1 0x0 JUMPDEST DUP4 DUP2 LT ISZERO PUSH2 0xE10 JUMPI DUP1 DUP3 ADD MLOAD DUP2 DUP5 ADD MSTORE PUSH1 0x20 DUP2 ADD SWAP1 POP PUSH2 0xDF5 JUMP JUMPDEST PUSH1 0x0 DUP5 DUP5 ADD MSTORE POP POP POP POP JUMP JUMPDEST PUSH1 0x0 PUSH2 0xE27 DUP3 PUSH2 0xDE7 JUMP JUMPDEST PUSH2 0xE31 DUP2 DUP6 PUSH2 0xAD4 JUMP JUMPDEST SWAP4 POP PUSH2 0xE41 DUP2 DUP6 PUSH1 0x20 DUP7 ADD PUSH2 0xDF2 JUMP JUMPDEST PUSH2 0xE4A DUP2 PUSH2 0x430 JUMP JUMPDEST DUP5 ADD SWAP2 POP POP SWAP3 SWAP2 POP POP JUMP JUMPDEST PUSH2 0xE5E DUP2 PUSH2 0x4E7 JUMP JUMPDEST DUP3 MSTORE POP POP JUMP JUMPDEST PUSH1 0x0 PUSH1 0x80 DUP3 ADD SWAP1 POP DUP2 DUP2 SUB PUSH1 0x0 DUP4 ADD MSTORE PUSH2 0xE7E DUP2 DUP8 PUSH2 0xE1C JUMP JUMPDEST SWAP1 POP PUSH2 0xE8D PUSH1 0x20 DUP4 ADD DUP7 PUSH2 0xE55 JUMP JUMPDEST PUSH2 0xE9A PUSH1 0x40 DUP4 ADD DUP6 PUSH2 0x367 JUMP JUMPDEST PUSH2 0xEA7 PUSH1 0x60 DUP4 ADD DUP5 PUSH2 0xE55 JUMP JUMPDEST SWAP6 SWAP5 POP POP POP POP POP JUMP INVALID LOG2 PUSH5 0x6970667358 0x22 SLT KECCAK256 0xE0 CALLER BLOCKHASH CODESIZE GASLIMIT 0x27 ISZERO PUSH0 PC EQ SWAP11 PUSH31 0x36B200329A53E900EAB250180552B1F6E3BBADF764736F6C63430008140033 "},"methodIdentifiers":{"verifiedProofs(bytes32)":"176d80c4","verifier()":"2b7ac3f3","verifyProof(uint256[2],uint256[2][2],uint256[2],uint256[6],string)":"fa5b4f9a"}}}}}