{
  "_format": "hh-sol-artifact-1",
  "contractName": "ETAProver",
  "sourceName": "src/contracts/ETAProver.sol",
  "abi": [
    {
      "anonymous": false,
      "inputs": [
        {
          "indexed": true,
          "internalType": "bytes32",
          "name": "proofHash",
          "type": "bytes32"
        },
        {
          "indexed": true,
          "internalType": "address",
          "name": "prover",
          "type": "address"
        },
        {
          "indexed": false,
          "internalType": "uint256",
          "name": "timestamp",
          "type": "uint256"
        }
      ],
      "name": "ProofGenerated",
      "type": "event"
    },
    {
      "inputs": [
        {
          "internalType": "uint256[2]",
          "name": "sourceLocation",
          "type": "uint256[2]"
        },
        {
          "internalType": "uint256",
          "name": "claimedETA",
          "type": "uint256"
        },
        {
          "internalType": "uint256",
          "name": "actualETA",
          "type": "uint256"
        }
      ],
      "name": "generateProofHash",
      "outputs": [
        {
          "internalType": "bytes32",
          "name": "",
          "type": "bytes32"
        }
      ],
      "stateMutability": "pure",
      "type": "function"
    },
    {
      "inputs": [
        {
          "internalType": "bytes32",
          "name": "",
          "type": "bytes32"
        }
      ],
      "name": "proofs",
      "outputs": [
        {
          "internalType": "bool",
          "name": "",
          "type": "bool"
        }
      ],
      "stateMutability": "view",
      "type": "function"
    },
    {
      "inputs": [
        {
          "components": [
            {
              "internalType": "uint256[2]",
              "name": "a",
              "type": "uint256[2]"
            },
            {
              "internalType": "uint256[2][2]",
              "name": "b",
              "type": "uint256[2][2]"
            },
            {
              "internalType": "uint256[2]",
              "name": "c",
              "type": "uint256[2]"
            },
            {
              "internalType": "uint256[6]",
              "name": "input",
              "type": "uint256[6]"
            }
          ],
          "internalType": "struct ETAProver.ETAProof",
          "name": "proof",
          "type": "tuple"
        }
      ],
      "name": "submitProof",
      "outputs": [
        {
          "internalType": "bytes32",
          "name": "",
          "type": "bytes32"
        }
      ],
      "stateMutability": "nonpayable",
      "type": "function"
    }
  ],
  "bytecode": "0x608060405234801561001057600080fd5b50610901806100206000396000f3fe608060405234801561001057600080fd5b50600436106100415760003560e01c8063206fba5114610046578063444d95b014610076578063d7ce3157146100a6575b600080fd5b610060600480360381019061005b9190610642565b6100d6565b60405161006d9190610689565b60405180910390f35b610090600480360381019061008b91906106d0565b61024d565b60405161009d9190610718565b60405180910390f35b6100c060048036038101906100bb9190610733565b61026d565b6040516100cd9190610689565b60405180910390f35b600080610168604051806040016040528085606001516000600681106100ff576100fe610786565b5b60200201518152602001856060015160016006811061012157610120610786565b5b6020020151815250846060015160026006811061014157610140610786565b5b6020020151856060015160036006811061015e5761015d610786565b5b602002015161026d565b905060008082815260200190815260200160002060009054906101000a900460ff16156101ca576040517f08c379a00000000000000000000000000000000000000000000000000000000081526004016101c190610812565b60405180910390fd5b600160008083815260200190815260200160002060006101000a81548160ff0219169083151502179055503373ffffffffffffffffffffffffffffffffffffffff16817f7a073a3dc349f2fa98e1a7338c237bdea2b2c8d9bc5f27fb7cf44578ff7a9f9c4260405161023c9190610841565b60405180910390a380915050919050565b60006020528060005260406000206000915054906101000a900460ff1681565b60008360006002811061028357610282610786565b5b60200201518460016002811061029c5761029b610786565b5b602002015184846040516020016102b6949392919061087d565b6040516020818303038152906040528051906020012090509392505050565b6000604051905090565b600080fd5b600080fd5b6000601f19601f8301169050919050565b7f4e487b7100000000000000000000000000000000000000000000000000000000600052604160045260246000fd5b610332826102e9565b810181811067ffffffffffffffff82111715610351576103506102fa565b5b80604052505050565b60006103646102d5565b90506103708282610329565b919050565b600080fd5b600067ffffffffffffffff821115610395576103946102fa565b5b602082029050919050565b600080fd5b6000819050919050565b6103b8816103a5565b81146103c357600080fd5b50565b6000813590506103d5816103af565b92915050565b60006103ee6103e98461037a565b61035a565b90508060208402830185811115610408576104076103a0565b5b835b81811015610431578061041d88826103c6565b84526020840193505060208101905061040a565b5050509392505050565b600082601f8301126104505761044f610375565b5b600261045d8482856103db565b91505092915050565b600067ffffffffffffffff821115610481576104806102fa565b5b602082029050919050565b600061049f61049a84610466565b61035a565b905080604084028301858111156104b9576104b86103a0565b5b835b818110156104e257806104ce888261043b565b8452602084019350506040810190506104bb565b5050509392505050565b600082601f83011261050157610500610375565b5b600261050e84828561048c565b91505092915050565b600067ffffffffffffffff821115610532576105316102fa565b5b602082029050919050565b600061055061054b84610517565b61035a565b9050806020840283018581111561056a576105696103a0565b5b835b81811015610593578061057f88826103c6565b84526020840193505060208101905061056c565b5050509392505050565b600082601f8301126105b2576105b1610375565b5b60066105bf84828561053d565b91505092915050565b60006101c082840312156105df576105de6102e4565b5b6105e9608061035a565b905060006105f98482850161043b565b600083015250604061060d848285016104ec565b60208301525060c06106218482850161043b565b6040830152506101006106368482850161059d565b60608301525092915050565b60006101c08284031215610659576106586102df565b5b6000610667848285016105c8565b91505092915050565b6000819050919050565b61068381610670565b82525050565b600060208201905061069e600083018461067a565b92915050565b6106ad81610670565b81146106b857600080fd5b50565b6000813590506106ca816106a4565b92915050565b6000602082840312156106e6576106e56102df565b5b60006106f4848285016106bb565b91505092915050565b60008115159050919050565b610712816106fd565b82525050565b600060208201905061072d6000830184610709565b92915050565b60008060006080848603121561074c5761074b6102df565b5b600061075a8682870161043b565b935050604061076b868287016103c6565b925050606061077c868287016103c6565b9150509250925092565b7f4e487b7100000000000000000000000000000000000000000000000000000000600052603260045260246000fd5b600082825260208201905092915050565b7f50726f6f6620616c7265616479207375626d6974746564000000000000000000600082015250565b60006107fc6017836107b5565b9150610807826107c6565b602082019050919050565b6000602082019050818103600083015261082b816107ef565b9050919050565b61083b816103a5565b82525050565b60006020820190506108566000830184610832565b92915050565b6000819050919050565b610877610872826103a5565b61085c565b82525050565b60006108898287610866565b6020820191506108998286610866565b6020820191506108a98285610866565b6020820191506108b98284610866565b6020820191508190509594505050505056fea26469706673582212203c1dc08167db7fa187ddc582e46b590605cf7babe0feab8db2f9faeeef13649b64736f6c63430008140033",
  "linkReferences": {},
  "deployedLinkReferences": {}
}